:400000000020002011000000D5200000D520000010B503F0ADFB02F065F8C04610B51A4C12232360182003F01BFB80225200174B1A60174B174A1A601749184A1160184A0A
:400040001A6088218901174A1160174A1A602022164B1A602032164B1A600232154B1A60013A154B1A6015490B2003F043FA0B2003F034FA0022124B1A60002003F080FB2D
:400080001123236010BDC04630001040000301400000014040FF008000ED02000803014042FF00800403014041FF0080280003403001014010010140000101401538000030
:4000C0000C02074010B572B6EE221202174B1A609922174B1A60593A164B1A60164A174B1A60E123164A13601649174A1160174A13601322164B1A600832164B1A60093A39
:40010000154B1A60154A164B1A605322154B1A600223154A13603121144A1160144A1360FFF77CFF01F0D8FE10BDC046000302400004024000000440B60DC80008000440C2
:4001400000010440B06100000801044018010440000204401802044000030440800D0800080304401803044000040440080404401804044010B5064C2378002B07D1054B54
:40018000002B02D0044800E000BF0123237010BD780100200000000098830000084B10B5002B03D00749084800E000BF07480368002B00D110BD064B002BFBD09847F9E741
:4001C000000000007C01002098830000900000200000000010B502F095FA012805D102F0A5FA002803D0002002E0002000E0012010BDC04610B502F08DFF02F0A3FF3220A7
:4002000002F062FF02F0BAFF02F040F902F096FE02F060F801F0CEFF01F0DCFF02F0F2F910BDC046F0B583B005002D0A0400240C0F1C0A00120A0B0C074908704D708C705A
:40024000000EC8700F714A718B71FE20FF3003F077F803B0F0BDC04610030020002306E00C4A9A1811780C4AD15401339BB2062BF6D9094A1178094B1970517859709178CF
:400280009970D178D970117919715179597192799A71704780FE0000100300209003002084B0F0B55F464E464546E0B482B0040A05000A9068468180080C89460B919346B3
:4002C0001100090A88461100090C8C460C926A46D3801F0C1E000D9313AB1B882F4901220A704C702D148D702D12CD706A460424145F0C7124124C7188714A46120ECA71FF
:400300005A460A7242464A7262468A726A46D288CA72120A0A734F73360E8E730AAA127CCA730AAA527C0A740AAA927C4A740AAA1420125E8A741212CA740AAA927D0A75DA
:400340000AAAD27D4A750AAA127E8A750AAA527ECA750AAA927E0A760AAAD27E4A760AAA127F8A760AAA527FCA760AAA927F0A770AAAD27F4A7720220AA8825C8A77212281
:40038000825CCA77180002F0DBFF02B01CBC90469946A346F0BC08BC04B0184750020020F0B54F464646C0B487B0002306E04F4A9A1811784E4AD15401339BB2212BF6D976
:4003C0004B4B1B78002B46D04A4A1370484B597851709878D9780902091851801879597909020918918099799171D979D171197A1172597A5172997A9172197B090291813E
:40040000597B9173997BD173D97B1174197C5174597C9174987CD97C090209189182197D9175597DD175997D1176D97D5176197E9176597ED176997E1177D97E5177197F53
:400440009177597FD177987F20215054D97F2123D154002045E0274C22222749200007F08AFFFF235B000593228863881B0413439946A288E3881B04134398462389678909
:400480003F041F43A389E68936041E432500103512222900684607F06EFF484641463A003300FFF7FDFE154B0593228863881B0413439846A388E7883F041F43238966895B
:4004C00036041E43A389E48924041C4312222900684607F050FF4046390032002300FFF7DFFE07B00CBC90469946F0BD80FF000050020020EC020020A8830000FF010000FE
:4005000070B5060002F0ACFDC5B2002D0ED100240FE03555052003F025F8074B1B681B0405D402F09DFDC5B2013400E00024072CEFD9200070BDC0460803084010B5054BE1
:400540001B68002B02D00448FFF7DAFF0422014B1A6010BDC00F0840D802002070B50C0015001E0002F05EF8200001F043FE322002F0F8FF01F09AFF1024002005E00220F8
:4005800001F09EFFC0B2013CE4B2002801D1002CF5D1002803D0280001F0A6FF00E00020012E08D002DC002E17D015E0022E09D0032E0CD010E001B2280001F0F9FF04F016
:4005C000F5FF0AE001B2280001F0A4FF05E001B2280001F0CDFF00E0002070BD30B585B0002002F083F8002002F094F80D2001F047FE302001F01EFE012002F05FF8002075
:4006000002F068F8052002F0ADFF0323012205210220FFF7A3FF0390012002F04FF8012002F058F8052002F09DFF0323012205210220FFF793FF0190052002F093FF019A8B
:40064000039B9B1A03930398502104F0C5FD0290012002F04BF8002002F05CF8012002F02DF8002002F036F8052002F07BFF0323012205210220FFF771FF0390012002F0DB
:400680001DF8012002F026F8052002F06BFF0323012205210220FFF761FF0190019A039B9B1A0393039805F0CFFD041C029805F0CBFD011C201C05F041F9041C4E4B1860EB
:4006C000039805F0C1FD051C4C49201C05F000FB011C281C05F032F9494905F02FF9494B1860039805F0B0FD211C05F027F905F089FD0290002001F0F9FF012002F00AF8D4
:40070000012001F0DBFF002001F0E4FF052002F029FF0323012205210220FFF71FFF0390012001F0CBFF012001F0D4FF052002F019FF0323012205210220FFF70FFF01904C
:40074000019A039B9B1A0393039805F07DFD041C029805F079FD011C201C05F0EFF8041C294B1860039805F06FFD051C2349201C05F0AEFA011C281C05F0E0F8204905F097
:40078000DDF8224B1860012001F0B0FF012001F0C1FF052002F0E6FE012001F08FFF012001F098FF0323012205210220FFF7D6FE0190052002F0D6FE012001F07FFF002021
:4007C00001F088FF0323012205210220FFF7C6FE0390019A039B9B1A0393039805F034FD041C029805F030FD011C201C05F0A6F8074B186005B030BD4802002000007A4402
:400800006666E641E8020020980300209C030020D0020020F8B5042001F032FD312001F009FD0323012201210220FFF797FE05F00BFD041C012001F041FF012001F04AFF34
:40084000052002F08FFE032301220121002001F0E1FA05F0F9FC011CD64B5860201C05F04BFB041CD44B1D7A012D07D0002D0BD0022D05D0032D05D0002706E0CF4F04E02B
:40088000CF4F02E0CF4F00E0CF4FD04B1968201C05F054F8061C380005F0D6FC011C301C04F0EAFD002810D00122C24B9A60C24B9B7D002B00D1ECE1BE4B1A73002001F0D7
:4008C000FDFE002001F006FFE3E10022B94B9A602023B94AD35C002B00D1CBE0012D41D0002D02D0032D79D0B3E0B34B5B78002B04D1B74801F0CCFA051C00E0B44DAD4B1C
:400900001C69211C281C04F0A3FD00280DD0B14B1A68AE4B1A60012001F0E8FE002001F0F9FE0122AC4B1A7093E02123A24AD05C05F08AFC011C281C05F0DEFA011C201CB2
:4009400004F086FD002800D183E0A04B5A681A60002001F0CBFE002001F0DCFE00229E4B1A7076E0944B5B78002B04D19B4801F08FFA051C00E0994D8E4B1C69211C281CF8
:4009800004F066FD00280DD0924B1A688F4B1A60012001F0ABFE002001F0BCFE01228E4B1A7056E02123844AD05C05F04DFC011C281C05F0A1FA011C201C04F049FD0028BE
:4009C00047D0824B5A681A60002001F08FFE002001F0A0FE0022804B1A703AE0764B5B78002B04D17E4801F053FA051C00E07C4D704B1C69211C281C04F02AFD00280DD0B6
:400A0000744B1A68714B1A60012001F06FFE002001F080FE0122704B1A701AE02123664AD05C05F011FC011C281C05F065FA011C201C04F00DFD00280BD0644B5A681A60B3
:400A4000002001F053FE002001F064FE0022624B1A70052002F086FD0323012201210020FFF77CFD05F0F0FB524B596805F044FA041C01E1504B9B7F002B00D18EE02123DE
:400A80004D4AD05C07F0DAF9564A574B06F0B2FB07F0A2FA011C554805F02EFA544905F017F9051C5349301C04F0E6FC00281FD0484B1A68454B1A60012001F017FE00205C
:400AC00001F028FE0122444B1A70052002F04AFD0323012201210020FFF740FD05F0B4FB344D696805F008FA041C00236B61C3E0291C301C04F0ACFC00281CD0334B5A6867
:400B00001A60002001F0F2FD002001F003FE0022314B1A70052002F025FD0323012201210020FFF71BFD05F08FFB224B596805F0E3F9041CA0E01F4B9869002104F082FC13
:400B4000002800D198E0FFF745FB002800D093E0184D6C611F4E3368AB61013001F0C6FD002001F0D7FD052002F0FCFC0323012201210020FFF7F2FC05F066FB696805F0B9
:400B8000BBF9041C3368AB611B4905F0A1F8696904F0D4FE306000236B616DE0064B9B7E012B35D0002B29D0022B3CD0032B45D04EE0C04694010020EC02002066D60000F6
:400BC00088510000552A0100110001009400002000002544480200204402002000805E440080F6437B14AE47E17A743F0000144200007A44008810470000A042002001F04A
:400C000075FD002001F086FD244B5A681A601FE0012001F06BFD002001F07CFD204B1A681E4B1A6014E0002001F060FD012001F071FD1C4B1A68194B1A6009E0012001F08C
:400C400055FD012001F066FD174B1A68134B1A60164B9A7E164B1A70052002F083FC0323012201210020FFF779FC05F0EDFA114B596805F041F9041C201C05F0C3FA0021AA
:400C800001F0ECF805F0E0FA044B196804F056FE041C201C05F0B6FAF8BDC046940000204802002098030020D0020020EC020020440200209401002070B582B0FFF7AAFDD4
:400CC00004005C4B9B68002B00D0AEE0594BDD69281C07F02DF90022574B05F03BFB00900191281C05F08EFA0600451C280007F0A5F802000B000098019904F08DFB00289A
:400D000005D0280005F0A0FA05F07CFA04E0300005F09AFA05F076FA484B5B78002B06D105F092FA01F0A2F805F06CFA0600434B1B7A012B10D0002B04D0022B16D0032B76
:400D40001ED027E06420704301F0A4FE201801F02BFE05F079FA1EE06420704301F04CFF201801F0DBFE05F06FFA14E06420704301F0F4FF201801F083FF05F065FA0AE031
:400D80006420704302F09CF8201802F02BF805F05BFA00E000202A4904F0D0FD041C274B5B78002B02D101F073F8041C214B186A002830D005F048FA011C201C04F048FBEF
:400DC00000281ED001F04AFC00282FD0201C05F019FA184B1B6AC01AC317C0185840022824DD144B5B6A002B07D1124B01229A62144A127A52B25A6218E0013B0D4A536277
:400E000014E00C4D201C05F0FDF928620D4B1B7A5BB26B620AE0074D201C05F0F3F92862084B1B7A5BB26B6200E0074C201C02B070BDC046940100200000E03FEC02002010
:400E40000000C8429400002000803B4510B5124BDB7E002B0FD1012001F008FC0A2002F081FB012001F0EEFB0A2002F07BFB002001F0FCFB0EE0012B06D1012001F0F6FBF7
:400E8000002001F0DFFB05E0002001F0EFFB012001F0D8FB10BDC046EC02002070B505000C00464B02229B5E8B420EDD01F0D6FB002802D0002001F0C5FB01F0E3FB002881
:400EC0007AD0002001F0D2FB76E03C4BDB79012B39D13A4B9B79CB1A83420EDB384B9B68002B0AD101F0BAFB002816D101F0CAFB002812D1FFF7AAFF0FE0AC420DDC01F0DF
:400F0000ADFB002802D0002001F09CFB01F0BAFB002802D0002001F0A9FB284B9B7B002B4AD0264BDB7B1C19A54204DB01212C23234AD15440E0043CA5423DDA00212C23B1
:400F40001F4AD15438E01D4B9B79CB1881420EDC1B4A9268002A0AD101F080FB00282BD101F090FB002827D1FFF770FF24E09D4222DC01F073FB002802D0002001F062FB22
:400F800001F080FB002802D0002001F06FFB0B4B9B7B002B10D0094BDB7BE41AA54204DC01212C23064AD15406E00434A54203DD00212C23024AD15470BDC046EC0200207D
:400FC00094010020F8B505000E001700180001F031F9052002F0C6FA03233A0031002800FFF7BCFA0400052002F0BCFA7AB203233100280000F00EFF241A092C0FDC0122FC
:40100000094B9A60094B9B7D002B0BD0064B1A73002001F053FB002001F05CFB02E00022014B9A602000F8BD94010020EC02002070B582B00023019300937F2001F0FAF846
:40104000002001F03BFB012001F044FB7C4B1A7A531FDBB2012B58D80E2001F011F97F23002205210220FFF779FA01907F23002203210220FFF772FA0090009A019B9B1A0C
:401080000193019B002001F019FB012001F022FB002001F02BFB002001F03CFB0022694B1A707F2305210220FFF78CFF0190019806F0C4FE0022644B04F0A4F9002810D016
:4010C0000122624B9A605E4B9B7D002B7FD05F4B1A73002001F0F2FA002001F0FBFA00247AE00198012100F0B9FE0190019806F0A5FE574A574B05F059FC0022564B06F0C8
:4011000079F804F035FA040066E0042A61D1062001F0B6F8514C524B1B682360012001F0E5FA002001F0F6FA052002F01BFA0122444B1A70002001F0C1FA012001F0CAFA70
:40114000052002F00FFA4F23012203210220FFF739FF0190019805F077F8216804F0EEFB05F050F80190019A3E4B9A4210DD0122364B9A60324B9B7D002B2CD0334B1A7332
:40118000002001F09BFA002001F0A4FA002423E00198012100F062FE0190019E324B186806F0C6FE314A324B06F024F804000D00300006F043FE22002B0005F0F7FB0022E9
:4011C000254B06F017F804F0D3F9040004E0002402E0002400E000240E2001F051F8184B1B7A052B05D1200001F026FB05F02CF80DE0062B06D1200001F07AFBBE3805F08D
:4012000023F804E0200001F0B3FA05F01DF8194904F094FB06F08CFE174A184B06F064FA06F0DAFE064B5B78002B01D100F030FE064B9B68002B00D0114802B070BDC046D0
:40124000EC0200204402002080844E4194010020CDCCCCCCCC0C834000408F409400002048020020F8240100E80200203333333333B367400000C8429A999999999909404F
:4012800000803B4570B5040000F0D4FF0323002204210320FFF762F90500200006F0CEFD064A074B05F0A6FF04F062F981B2280003F092FF04F0C8FF70BDC0463333333357
:4012C0003333134010B50E2000F0DAFF012001F0F5F9002001F0FEF90220FFF7D3FF041C1F4904F0B5F8002804D01620FFF7CAFF041C20E01A49201C04F0BEF800280AD002
:401300001849201C04F0A4F8002804D00720FFF7B9FF041C0FE01349201C04F0ADF8002809D01149201C04F093F8002803D00320FFF7A8FF041C201C04F002F902F0BCFAAB
:40134000022100F08BFD04F07FFF084904F0F6FA074B5B78002B01D100F09AFD10BDC0460000FA4400D8D64700D856480000C842EC02002070B505000C00080007F004F8BD
:4013800002002100280006F0E7FF43425841C0B270BDC046F0B585B004000E1E0FD1254DE87D04F099FF244904F0C8FA071CA87C04F092FF204904F0C1FA039005E08A00ED
:4013C0001E4B9B185F6A9B6B0393200004F03CFF041CB3001A4AD3181D6B291C04F08CFD0190002104F034F8002805D00199002004F082FD029001E0019B0293291C381C78
:4014000004F066FC011C029804F036F8002808D10199039804F05CFC011C281C04F018F9041CB300064AD3181C63201C04F0EAFE05B0F0BDEC0200200000C842A88300004B
:4014400094010020F0B55F4656464D464446F0B4ABB062B6FEF7CEFED44801F0D5FEFEF7FDFED34B5B79012B1FD0D14C0722D1494C31200006F07FFF217863781B020B43AF
:401480001A00A078000403001343E078000618432279617909020B001343A17909041943FEF7C0FE642002F05DF8FEF779FFC24A11781DAB1970517859700220115E997083
:4014C0000912D9700420115E19710912597191799971D179D971117A1972517A5972917A99729189D972090A1973917B5973D17B9973117CD973517C1974917C59741420A7
:40150000115E99740912D974917D1975D17D5975117E9975517ED975917E1976D17E5976117F9976517FD976917F1977D47F5C772021515C99772121525CDA7720229D49AE
:40154000543115A806F017FF002C01D0FFF746F8032301220121002000F05CFC04F074FE964B58600E2000F08BFE072000F062FE0223002200210020FEF7F0FF04F064FE3A
:40158000041C03900223002202210020FEF7E6FF04F05AFE211C04F0AFFC051C0790864B1C7C002C11D11E00587A04F04DFE291C04F08EFB051C1423F05E04F045FE011CD2
:4015C000281C04F0BBF9009001E000230093200004F03AFE079904F07BFB051C764E1423F75E380004F030FE041C011C281C04F0A5F9051C707C381A04F026FE079904F099
:4016000067FB211C04F09AF9041C0223002201210020FEF7A3FF0295291C002004F06CFC051C0223F75E0423F05E04F00DFE291C04F04EFB002104F081F9051C380004F07F
:4016400003FE291C04F004F85C4D28610299201C04F052FC0890FFF735FEE861337A043BDBB2022B15D8FFF7E3FC544B5864012705239A46013B0B93013B0A93013B099361
:40168000013B9B46FE339946002398460023069304E0FFF711FB494B5864E8E72C23474AD35C002B03D0012000F0F4FF02E0002000F0F0FF2C23414AD35C002B0CD04822CF
:4016C0003E498A5C002A18D149328A5C002A14D14A328A5C002A10D1482238498A5C002A04D049213548415C002906D1002A0AD04A213248415C002905D0F8B200F0CAFF53
:40170000013F7F428EE0002B00D08BE0002A26D0099C002C13D05B46002B0AD0012000F0B9FF2300013B099301235B429C46E34415E0002000F0AEFF01239B460FE053468D
:40174000002B06D0002000F0A5FF5346013B9A4605E005239A46033B0993013B9B464923164AD35C002B31D00A9C002C13D05B46002B0AD0012000F08DFF2300013B0A9300
:4017800001235B429C46E34420E0002000F082FF01239B461AE05346002B11D0002000F079FF5346013B9A4610E0C0463D05000090030020A8830000EC0200209401002014
:4017C00005239A46023B0A93023B9B464923D24AD35C002B26D00B9C002C13D05B46002B0AD0012000F056FF2300013B0B9301235B429C46E34415E0002000F04BFF012315
:401800009B460FE05346002B06D0002000F042FF5346013B9A4605E005239A46013B0B93033B9B4601F0BAFCC30700D436E7BB4B9B79012B00D131E701F038FC012001F08A
:40184000B3FC322001F040FC01F098FC4B46002B06D1FFF737FDB04BD861FF23994603E001235B429C46E1440E2000F009FD072000F0E0FC0223002201210020FEF76EFE17
:4018800004F0E2FC04F0BEFC032100F0E7FA04F0DBFC039904F030FB0190029904F02CFB051C011C009803F0DDFD002832D09C4B02229C5E04269E5F300004F0C5FC291CC3
:4018C00004F006FA089904F039F8051C200004F0BBFC291C03F0BCFE051C8F4B1861A01904F0B2FC061C011C281C03F0C5FD002801D0894B1E618A4B1420185E04F0A4FCEA
:40190000019904F0E5F9079904F018F804F07AFC80461BE0824D0223E85E04F095FC7E4B1861687A04F090FC019904F0D1F9009904F004F80690002103F09EFD002805D0E6
:40194000002000F07FFE002000F090FE0022754B1A70714B9B68002B2FD0002000F072FE002000F083FE012149236B4AD1546C4B5B7E002B25D06A4B9B7D002B0ED06A4A34
:40198000D1680B68694803601269934219D1664B5A690A609A69DB69136012E0624AD1680B6862480360126993420AD15E4B5A690A609A691B6A136003E000214923564A32
:4019C000D15401F0F7FB002829D001214823524AD154534B5B7E002B25D0514B5B7F002B0ED0514AD1680B68504803601269934219D14D4B5A690A609A695B6A136012E0EC
:401A0000494AD1680B6849480360126993420AD1454B5A690A609A699B6A136003E0002148233D4AD1543E4B1B7A043BDBB2022B04D8FFF7FDFA384B586403E0FFF73CF9C8
:401A4000354B5864344B5C6C3949201C03F000FD00280BD0324B988904F0F6FB211C03F0F7FD04F0CFFB2C4BD86402E0314A2A4BDA64294C206904F0C5FB0100E06CFFF715
:401A80000DFA03222C492D4806F066FC00281ED101221DAB1A70294B1A795B791F2A0ED81DA98B54002304E01DAAD15C0DAAD15401331F2BF8DD0DA9214801F041FCFEF711
:401AC0006FFC002000F0BEFD002000F0CFFD1D491A48FFF74FFC00280FD13BE0EB00E3181F2B03D81DAAD05C01F046FA013400E00024072CF2D9013500E00025042DF7D906
:401B0000002525E0EB00E3181F2B03D815AAD05C01F032FA013418E09401002090030020EC0200200E030020940000204002002000803B45B80B00001C840000D802002021
:401B4000FF010000208400000024072CDAD90135042DF9D9A149A248FFF70CFC002802D0A04801F097FAA0499D48FFF703FC002814D00021009803F065FC00280ED04346DD
:401B80001B1225AA414611705370002404E025AB185D01F0F1F90134012CF8D993499048FFF7E8FB002800D18EE000F057FD25AC207000F067FD60708D4D2C23EB5CA370C3
:401BC000686C04F01FFB0312E0702371286904F019FB03126071A371E86904F013FB0312E0712372834B1B681D1C0193181C04F009FB0400C6B2281C06F09AF900227E4BAB
:401C00000490059104F0A6FB06F0E2F8844208DA0022794B0498059905F066FD06F0D8F8C6B27649019804F053F8051CB3009B19580004F009FB011C281C04F05DF904F0A9
:401C4000E1FAC4B26E49019804F042F80490281C04F0D8FA83001B18580004F0F5FA011C049804F049F904F0CDFAC5B26549019804F02EF80190049804F0C4FA83001B18EF
:401C8000580004F0E1FA011C019804F035F904F0B9FA25AB5E729C72DD7218735A4A12785A73534A4921515C99734A21515CD9734821525C1A74002404E025AB185D01F0F4
:401CC0005BF90134102CF8DD002303E03021444AD1540133072BF9D90021009803F0B2FB002860D0494B5B7E002B00D1D6E4414AD1680B68464803601269934205D13D4B5E
:401D00005A690A609A695B691360394C606C04F079FA0500206904F075FA00042818206500F0B0FC050000F0C1FC40002818C5B200F094FC8300EB18DBB2424616029E199B
:401D4000E06904F05FFA000436182A4D286804F059FA0006301860652D4B1B68EA6A934207D1EA6869691160AB69214A126D1A6094E4204A126B934208D11E4BDA68596997
:401D800011609B691A4A526D1A6087E4194A526B934200D082E4174BDA68596911609B6942461A607AE4194B5B7E002B0FD0114AD1680B6816480360926B934207D10D4B2F
:401DC0005A690A609C69069803F0BAFB2060002000F038FC002000F049FC5FE428840000D80200202C840000308400003884000094010020940000200000E03F0000204160
:401E00000000C84200007A4444020020EC02002040020020F8B505000E0014001F00322001F0A0FB012000F049FC012000F052FC322001F097FBE2B23B0031002800FEF78C
:401E40008DFB0400002000F039FC012000F042FC322001F087FB2000F8BDC04600B583B0FFF798FA0190019803B000BD10B58421C90504F041F806F05BF8034A034B04F05B
:401E800095FD06F0A9F810BDCDCCCCCCCCCCFC3F10B506F04DF8054A054B05F0ABF90022044B04F057FA06F097F810BDCDCCCCCCCCCCFC3F00004040064B1B68002803D095
:401EC00080221206134301E05B005B08014A13607047C04680033A4010B5802252010F4B1A6080231B060E4A136003210D4A11608821C9020C4A116004210C4A11600C4A35
:401F000013600C4B0C4A13600C4A136020220C4B1A600120FFF7D0FF10BDC04694020C40000030403000304080003040C000304000003A401000400000033A4040033A4063
:401F4000000E3F40052830D88000184B1B589F460122174B1A60174A116806230B43136023E00122124B1A60124A116860230B4313601AE001220E4B1A600E4A1368C021E7
:401F8000C9010B43136010E00122094B1A600A4A1368C021C9030B43136006E00422044B1A6002E00822024B1A6070474084000080003040000202400001024005282ED8AB
:401FC0008000174B1B589F460122164B1A60164A136806218B43136021E00122114B1A60114A136860218B43136018E001220D4B1A600D4A11680D4B0B4013600FE00122EF
:40200000084B1A600A4A11680A4B0B40136006E00422044B1A6002E00822024B1A607047588400008400304000020240FF9FFFFF00010240FFFF9FFF01280DD0002804D003
:4020400002280FD0032814D018E00D4A1368C021C9040B43136011E0094A116806230B4313600BE0064A1368C021C9020B43136004E0034A116860230B4313607047C0469A
:402080000003024001280CD0002804D002280ED0032812D016E00C4A11680C4B0B40136010E0094A136806218B4313600AE0064A1168074B0B40136004E0034A13686021D5
:4020C0008B4313607047C04600030240FFFFFFF9FFFFF9FF10B506F013F903680C2B00D1FEE7FEE770B50F4E0F4D13E029686B68AC68002202E001C901C30432A242FAD1ED
:40210000E868002202E0002102C304328242FAD11035013E002EE9D106F0F8F8FFF792F9FEE7C04601000000A888000010B500230AE0032B03D89A000849505800E0084813
:402140009900084A88500133232BF2D9FDF7BAFF80229205044B1A6010BDC04600000000D52000000000002008ED00E00222064B1A6080221206054B1A600022044B1A6085
:402180000132044B1A607047FC0100200000304004003040080F3040044A1168044B1B680B43802109010B431360704704003040FC01002010B5064B1B79002B04D1FFF7A9
:4021C000D5FF0122024B1A71FFF7E6FF10BDC046FC01002010B5002404E02000FFF7EEFE0134E4B2052CF8D9FF22014B1A7010BDF200002010B50400054B1878FF2801D032
:40220000FFF7DCFE2000FFF79DFE014B1C7010BDF200002010B501F0B4FB044A136804490B43136001F0B1FB10BDC04600000C400010008010B5040001F0A3FB044A1368BD
:402240007F218B430C401C43146001F09EFB10BDC0010C4070B5040001F093FB064D2B68064A134019002302C022920013400B432B6001F08AFB70BDC0010C40FFFCFFFFB5
:4022800010B5040001F07DFB044A1168044B0B40A4051C43146001F078FB10BDC0010C40FFFF3FFC10B501F06CFB084A1168084B0B40136001F069FB7F20FFF7BBFF0020DB
:4022C000FFF7C8FF0E20FFF7DBFF10BDC0010C407FFFD0FF10B5064B1B68002B04D1FFF7E1FF0122024B1A60FFF794FF10BDC0460402002010B50321132001F00DF93F4986
:40230000132001F0F7F803223D4B1A603D4B1B68002B01DA3C4900E03C493D4A13680B4313603C4A3C4B1A603C4A3D4B1A6000233C4A13603C4A3D490A603D490A603D4A8D
:4023400013603D4A136001223C4B1A603C4A11683C4B0B40802189050B43136000224AE0394891000C58DC239B0123408018007A03433648844661440B60E30707D52D4860
:402380000168012393401B041B0C0B43036093002D495B589B0707D527480168012393401B041B0C0B430360930027495B58990502D58021C90001E080214901DB0506D4AB
:4023C0004B085B421BB25000214C035303E0480853001F4C18531F4B4B43802109018C466344D9170905090DCB181B131BB29000194943500132012AB2D910BDF92500004A
:4024000020003A4080033A40502E1010502E001000003A40F500008004003A400000FF0718003A401C003A400400040010003A4014003A4028023A4038023A4018023A4032
:4024400030003A40FEFFFFDF7084000080003A40CC03002010270000C403002010B5094B1B68002B0CDB084B1B68002BFBDB054A1368802109060B4313600A2001F05CF9AC
:4024800010BDC04600003A4008023A4010B5064B1B78002B04D1FFF72DFF0122024B1A70FFF7DCFF10BDC04608020020034A1368802149020B4313607047C04604003A4008
:4024C000020083070CD0074B1B680120184001D19307F8D4002804D00122024B1A6000E00020704710023A4010B50400012802D9002000F0FDFF012C07D8A400044B9C460B
:40250000644420680004000C00E0002000B210BD80013A4070B504000D00012802D9002000F0E6FF63000F4A995A09B2691A09B20D484843002906DDA3000C4A9A58D30F51
:402540009A18531006E0A300084A9A58D30F9A18521053421818A400044BE15802F03CFE00B270BDCC03002010270000C403002070B505000C00012802D9002000F0B8FF79
:402580006A00084BD05A00B2201A00B2C117064A002302F0A9FFAD00044BEA58D31702F07FFF70BDCC03002080969800C403002070B504000D00012802D9002000F098FF87
:4025C00062000A4BD05A00B2281A00B203F03CFE074903F07DFB051CA400064BE05803F033FE011C281C03F0A9F970BDCC03002000002041C4030020014B1A681A607047A1
:4026000010023A4010B5002404E02000FFF73AFD0134E4B2032CF8D9FF22014B1A7010BDF300002010B50400054B1878FF2801D0FFF728FD2000FFF7FFFC014B1C7010BDE0
:40264000F3000020044A1368DBB201218B430840184310607047C04600000440024B1B68012018407047C0460400044004490A68D2B204239A43800018401043086070470E
:4026800000000440024B186880080123184070470400044004490A687F231A40C301D8B2104308607047C04600000440024B1868C0090123184070470400044004490A6871
:4026C000D2B208239A43C00018401043086070470000044004490A68D2B202239A43400018401043086070470000044004490A68D2B202239A43400018401043086070479E
:4027000000010440024B186840080123184070470401044004490A68D2B204239A438000184010430860704700010440024B186880080123184070470401044010B50A004D
:40274000C117002302F0D0FE00290BDA002342428B411B02120E1A431000D117002342428B4103E00B02000E18430200100010BD70B58AB005AC1F4B2200190070C970C2C0
:4027800030C930C201AA143332CB32C21B681360194B984217D945010020042408E0A20005ABD358C0182900FFF7C8FF013CE4B2002CF4D1114B9C466044C2175205C30AD3
:4027C0001A43100014E045010020032408E0A20001ABD358C0182900FFF7B0FF013CE4B2002CF4D1064BC318D8174005DB0A18430AB070BD7C840000A086010071E0FFFC26
:40280000E5780BFD10B50A00C117002302F06CFE00290BDA002342428B411B02120E1A431000D117002342428B4103E00B02000E18430200100010BD30B587B003AC1B4A1F
:40284000130026CB26C46A4632CB32C2184B984215D985000020022408E0A20003ABD358C0182900FFF7CEFF013CE4B2002CF4D1104BC318D8174005DB0A184314E08500C5
:402880000020022408E0A3006A469B58C0182900FFF7B8FF013CE4B2002CF4D1064BC318D8174005DB0A184307B030BDA084000040420F008ABF03FD605B00FD10B50A0069
:4028C000C117002302F010FE00290BDA002342428B411B02120E1A431000D117002342428B4103E00B02000E18430200100010BD30B587B003AC1B4A130026CB26C46A4651
:4029000032CB32C2184B984215D985000020022408E0A20003ABD358C0182900FFF7CEFF013CE4B2002CF4D1104BC318D8174005DB0A184314E085000020022408E0A300D1
:402940006A469B58C0182900FFF7B8FF013CE4B2002CF4D1064BC318D8174005DB0A184307B030BDB884000040420F004125F0FCD49DECFC10B50A00C117D31702F0B4FD52
:4029800000290BDA002342428B411B02120E1A431000D117002342428B4103E00B02000E18430200100010BD30B599B0050060223349684605F0DFFC002D1CDA03DA6D42FB
:4029C000ED026D4200E0ED02072400200AE063001B199A006B46D358C0182900FFF7CAFF013CE4B2002CF2D1264BC318D81780059B0A184341E0244B9D421FDC002D03DA72
:402A00006D422D026D4200E02D02072400200AE06200121993006B445B68C0182900FFF7A9FF013CE4B2002CF2D1184B9C466044C217D205430A1A4310001EE0002D03DA77
:402A40006D422D026D4200E02D02072400200AE06200121993006B449B68C0182900FFF789FF013CE4B2002CF2D1094B9C466044C217120703091A43100019B030BDC04671
:402A8000D0840000F51A0000A7A70000840B0000C7E2B4FF30B589B06A46124B603332CB32C232CB32C212CB12C2002803DA40424002454200E045020020072408E0A300DC
:402AC0006A469B58C0182900FFF754FF013CE4B2002CF4D10138C317DB064009184309B030BDC046D084000010B50A00C117D31702F0FAFC00290BDA002342428B411B0276
:402B0000120E1A431000D117002342428B4103E00B02000E18430200100010BD30B59FB0050078223149684605F025FC002D1BDA03DA6D42ED026D4200E0ED0209240020FC
:402B40000AE063001B199A006B46D358C0182900FFF7CAFF013CE4B2002CF2D1C3175B06C209134318003EE0214B9D421CDC002D03DA6D426D026D4200E06D020924002094
:402B80000AE06200121993006B445B68C0182900FFF7AAFF013CE4B2002CF2D1C217D20743081A4310001EE0002D03DA6D422D026D4200E02D02092400200AE06200121965
:402BC00093006B449B68C0182900FFF78DFF013CE4B2002CF2D1074B9C466044C2175206C3091A4310001FB030BDC04650850000A4500000B641E6FF30B58BB001A90A00CE
:402C0000114B783332CB32C232CB32C232CB32C2002803DA45426D026D4200E045020020082408E0A20001ABD358C0182900FFF75BFF013CE4B2002CF4D1C317DB06400923
:402C400018430BB030BDC0465085000010B50A00C117D31702F048FC00290BDA002342428B411B02120E1A431000D117002342428B4103E00B02000E18430200100010BDF1
:402C800030B599B0050060223149684605F073FB304B9D421FDA002D03DA6D426D036D4200E06D03072400200AE063001B199A006B46D358C0182900FFF7C8FF013CE4B286
:402CC000002CF2D1244B9C466044C2175207C3081A43100039E0002D1BDC03DA6D42ED026D4200E0ED02072400200AE06200121993006B445B68C0182900FFF7A7FF013CAF
:402D0000E4B2002CF2D1C317DB05420A134318001BE0002D03DA6D426D026D4200E06D02072400200AE06200121993006B449B68C0182900FFF78AFF013CE4B2002CF2D130
:402D4000C2179205830A1A43100019B030BDC046EC8500001DEAFFFFF7FC280730B58BB001A90A00114B603332CB32C232CB32C232CB32C2002803DA45426D026D4200E075
:402D800045020020082408E0A20001ABD358C0182900FFF75BFF013CE4B2002CF4D10530C317DB06400918430BB030BDEC85000010B50A00C117D31702F096FB00290BDA3B
:402DC000002342428B411B02120E1A431000D117002342428B4103E00B02000E18430200100010BD30B59FB0050078223149684605F0C1FA304B9D421FDA002D03DA6D426C
:402E00002D036D4200E02D03092400200AE063001B199A006B46D358C0182900FFF7C8FF013CE4B2002CF2D1244B9C466044C217D20643091A4310003AE0002D1BDC03DA65
:402E40006D42AD026D4200E0AD02092400200AE06200121993006B445B68C0182900FFF7A7FF013CE4B2002CF2D1C317DB064209134318001CE0002D03DA6D42ED016D42C8
:402E800000E0ED01092400200AE06200121993006B449B68C0182900FFF78AFF013CE4B2002CF2D15938C217120703091A4310001FB030BD7086000087DDFFFFD9F75105C3
:402EC00030B58BB001A90A00114B783332CB32C232CB32C232CB32C2002803DA45426D026D4200E045020020082408E0A20001ABD358C0182900FFF75BFF013CE4B2002C56
:402F0000F4D1C317DB06400918430BB030BDC0467086000010B500F091F810BD10B500F039F810BD10B5044A1368802109060B431360FFF7EFFF10BD0000084010B5064BFD
:402F40001B78002B04D1FFF7E9FF0122024B1A70FFF7E8FF10BDC0460A020020014B18687047C04640030840024B1B681F2018407047C04608030840044B1B681F22134019
:402F8000082BF9D0024B18607047C0460802084040020840154A164B1A600023154A13601549164A1160164A16490A6007201649086016490B6006381549086015490A60AC
:402FC000154A1360042215490A6015490B6015490B6015490B6015490B6015490A60154A13601268144B1A807047C0460B000002000008404000084001000A0048000840AB
:403000000700008000030840040308401003084044000840000208400402084050000840880E0840C80E0840480F0840080F0840C80F0840880F08400C02002005490B6871
:40304000F0229343603A13430B60034B1A88034B1A607047000402400C020020880F084010B5FFF781FF002802D0FFF777FF01E0064B1868064A1368D821890011601B021D
:40308000D82292021340184310BDC04640030840C00F084070B50500002402E0FFF76CFF0134285D0028F9D170BDC04610B500F068FC044A136801218B43136000F065FC59
:4030C00010BDC046000006400004000C014B18607047C046080106400004000C014B18607047C046140106400004000C014B18607047C0460C01064070B504000D0000F0E1
:4031000040FCAC40024B1C6000F03FFC70BDC0460800064010B500F034FC064A116801230B43136000F031FC18210120FFF7E4FF10BDC04600000640014B18607047C04675
:403140003801064010B5802252020A4B1A600C22094B1A600120FFF7EFFFFA24A4002000FFF7BAFF2000FFF7BFFF2000FFF7ACFF10BDC046000106402401064010B5064B84
:403180001B78002B04D1FFF7DDFF0122024B1A70FFF7C0FF10BDC0460E020020014B18687047C04630010640014B18607047C04630010640024B1868800901231840704777
:4031C00004000440014BD8657047C0460000002010B5040000F0D5FB044A13689B009B08A4071C43146000F0D0FB10BD04E400E08022014B1A60704700E100E08022014BF5
:403200001A60704780E100E010B50400FFF7F6FF2000FFF7D7FF0320FFF7DAFFFFF7E8FF10BDC04682B0134B0093134B0193134B6A461A601249134A1160C0461B681B0F61
:403240001B07F0221206934204D10C4B1B68FF2018400DE0094B1B681B0F1B07A0221206934204D0054B1B68FF20184000E0002002B07047B6E90000100200200800104098
:403280001600008004001040104B114A1A601149114A1160C0461B681B0F1B07F0221206934204D1094B1B68FF2018400DE0074B1B681B0F1B07A0221206934204D0034BF8
:4032C0001B68FF20184000E00020704708001040B6E80000150000800400104082B0134B0093134B0193134B6A461A601249134A1160C0461B681B0F1B07F02212069342A4
:4033000004D10C4B1B68FF2018400DE0094B1B681B0F1B07A0221206934204D0054B1B68FF20184000E0002002B07047B6EA0000100200200800104017000080040010400C
:4033400030B5A5B004000023239322933D4B984272D8002970D0802202A805F00CF83A4B00937F230193394B6A461A603849394A1160C0461B681B0F1B07F02212069342E2
:4033800004D1324B1B68FF2213400DE02F4B1B681B0F1B07A0221206934204D02B4B1B68FF22134000E000232393239B002B45D100F0E7FA0500FFF735FF2290229B002B4C
:4033C00002D1FFF761FF2390239B002B25D1224A0092009A2404144300941C4A694611601E481C490860C0461268120F1207F02109068A4204D1154B1B68FF2213400BE0F1
:40340000124A1268120F1207A02109068A4203D00E4B1B68FF2213402393229B002B07D1FFF75CFF2290229B002B01D0229B2393280000F0AAFA01E004232393239825B00E
:4034400030BDC046FF010000B6D70000080010400400008004001040B6D800000500008070B5040000F08DFA0500102C05D8104A136803218B43136016E0202C07D80C491B
:403480000B6803229343023A13430B600CE0302C07D807490B6803229343013A13430B6002E0002000F024F8280000F06EFA70BD30001040024A1168024B0B4013607047FE
:4034C00000000740FFFFFFBF034B18688023DB05184000D001207047000007401F2318401E3B8340014A13607047C04600E100E001BE704770B504000D00132802D900205D
:40350000FFF7F6FF1034A40080239B059C4664442068256070BDC04670B504000E00032902D90020FFF7E4FF132C02D90020FFF7DFFF03252540ED00063500F022FAA408F9
:40354000A400074B9C46644421680323AB4099430B003100A9401943216000F016FA70BD00E400E010B5040006E0084B586800F0FFF9074B9C46644480231B029C42F4D872
:40358000024B9868604300F0F3F910BDF40000200080FFFF30B583B000F0E0F8002849D000F0EFF90400244B196889001C2319401831224B1B689B0803221340D940204BFA
:4035C0001A68204B1340204A4A438020C00184466244D20B013A5205520D1343A02252031A431000192902D8184A13430CE0184BCB181B781A39174A525C9A18FF2A00D96C
:40360000FF229205030013430D4A1360124D2B6801933020FFF724FF104A13688021C9050B4313601420FFF79DFF019B2B60200000F0ABF903B030BD080F034028000340B5
:403640000800074000F800C040420F000000D43FCDF1FF0F0C8700003000104000000740F0B583B0040018280BD01C2809D0202807D0242805D0282803D02C2801D0302885
:4036800049D100F07EF90190FFF71EFF002803D0FFF710FF012600E00026214A136807218B4313601F4BE3181B78DBB21E4A13601E4A13688B4313601D4803687F2293439E
:4036C00019001C4BE3181B7813400B430360322000F04EF9182C16D9114F3B680725AB431A0023001C3B9B082B4013433B60322000F03EF93A68AA432300183B9B082C00FF
:403700001C4014433C60012E01D1FFF743FF019800F03BF902E00020FFF7EAFE03B0F0BD080F0340CDF1FF0F0C0F0340100F0340180F0340B4F1FF0F10B5034B1B7B5843BD
:4037400000F016F910BDC046F4000020024B1868800F80077047C0460C020740034B1B68002B01DA012000E00020704700000740014A024B1A6070476588EDAC38000340AE
:4037800010B50400FFF7E2FFA0421AD0144A136803218B431360134B1B689B0F01D17C2001E086204000FFF7C7FF00F0EAF80D4A13689B009B08A40FA4071C43146000F0E0
:4037C000E4F8074B1B6803229343064A1268920F01D1023200E001221343014A136010BD140207400C02074010B5040000F0C9F8054B1C4005490B68054A134023430B60BC
:403800000B6800F0C2F810BD0404040010020740FBFBFBFF10B5244B1B685B0715D5234B1B685B070ED5224B5969042001401F4C22688A4322605A6982435A619B68002BC7
:4038400000D098470420FFF7CFFF174B1B685B0518D5164B1B685B0510D5154B59698022D2001140114802688A4302605969114A0A405A61DB68002B00D098478020C000DE
:40388000FFF7B2FF084B1B685B030CD5074B1B685B0304D5064B1B69002B00D098478020C002FFF7A1FF10BD100207400801002028020020FFFBFFFFF8B504F001FB00F07B
:4038C00067F804F089FB04F033FB04000D001B4A1B4B03F08FFC1B4A1B4B02F03BFD06000F000022194B2000290000F0D9F8184A184B03F07FFC02000B003000390002F040
:4039000029FD04F069FB04F013FB02000B000020114903F04BF8114A114B03F0E5FE0022104B03F067FC00220F4B02F013FD04F053FB02F067FC00B2F8BDC046D73C8D4B7D
:4039400003252F3F83B37F91DC09523F00000840ECCAB7C92E31763E0000F03F6666666666127140000059400000E03F000000000230800803D001300238FCD1C046C046EB
:403980007047EFF3108072B6704780F310887047F0B5474680B48CB004000D0000F03CFA3A4B06001B780F005BB2984601330FD022002B002000290004F0EAF9002807D1CC
:4039C000002200232000290001F01CFD002805D0300039000CB004BC9046F0BD2C4B0A90039343460494059506940795002B1AD1E022284B120608920993200000220023F4
:403A0000290001F0E5FC002838D00223029302A801F03EFA002817D00A9B0193002B18D1089E099FD4E700221B4B20000892099329000022002301F0CBFC00280FD0022339
:403A400002934346022BE2D104F05AFC22230360E2E704F055FC0A9B01930360E0E7012302934346022B0BD104F04AFC212303600A4801F00FFA08900991CDE701230293CE
:403A800002A801F005FA0028F2D1EDE70C01002024870000FFFFEFC70000F0FF28870000F0B55F464D4656464446F0B491B01F0004000D00160000F0B1FBCF4B0290039179
:403AC0009B461B785BB2994601334FD032003B003000390004F05CF90090002846D122002B002000290004F053F900228246002834D100232000290001F06AFC00283AD043
:403B0000002200233000390001F062FC0590002800D174E006AB9846012342460693B74B5360434652469C60DD601A621E615F614246002300249361D4614B46002B00D183
:403B400094E00023AE4C009301940098019911B03CBC90469946A246AB46F0BD00233000390001F035FC002800D0EBE0029B039C00930194E9E70298039901F07FF981465B
:403B8000002800D186E0029803990022002301F01FFC0028EAD02000290001F06FF9029A039B009201930028CFD03000390001F065F9029A039B009201930028C5D006ABEE
:403BC00098460423424606938C4B9460D560536000230024136200239361D4615B461B78166157615BB2022B04D0404601F050F9002840D104F084FB222303603BE0300014
:403C0000390001F03BF9029A039B0092019300289BD0002200233000390001F0DFFB002800D192E706AB9846012342460693734B53604346059A9C60DD601A621E615F61E7
:403C40005B461B785BB2002B0BD0002042466D499061D161022B09D104F052FB2123036009E04246002300249361D461404601F00FF90028F0D043461B6A002B04D004F044
:403C80003FFB43461B6A03604346DC699B69009301945AE72000290001F0F0F8002800D171E73000390001F0E9F8002800D16AE7029803990B00020004F06AF806AB9846FE
:403CC00000287AD10323424606934C4B106253605B461B789460D5605BB2166157619946002B48D1E0224146474B12068A61CB61200000220023290001F070FB002800D165
:403D000073E70022414B3000390003F073FA04000D0001F0C5F802000B002000290001F057FB002805D1E022394B120641468A61CB615B461B785BB299464B46022B00D072
:403D400053E757E706AB98460123424606932B4B536043469C60DD600024009A284D1A621E615F619C61DD614B4600940195022B00D07BE7E9E600224146264B20008A61D5
:403D8000CB6100220023290001F028FB0028D4D000221E4B3000390003F02CFA04000D0001F07EF802000B002000290001F010FB0028BED10022134BB8E701234246069397
:403DC0000E4B536043464A469C60DD601A621E615F6100245B461C57002C00D141E7002300221900100002F0E1FD43469861D961022C00D130E739E70C0100202C8700003D
:403E00000000F03F0000F0FFFFFFEF470000E03FFFFFEFC70000F07FF0B557464E464546E0B4DA4A88B00B00914255DC4A005208024300D1EFE0002900DA79E1D44B002267
:403E400003F0D8F93625D34C0B006D42A34247DC1A151B031B0B9846CF4C8023A446CF4C5B0344442340CE4C624452195C4045461B1599462543CA4B29009144002203F0F4
:403E800033FC434602331B0306000F001B0B0022022B2FDC002301F09BFA002800D1C1E04B46002B00D14CE1484603F0C7FFBD4ABD4B04000D0003F09DF9BC4A06000F005A
:403EC000BB4B2000290003F095F902000B003000390002F03FFA07E0AE4C0025A342B7DD02000B0002F036FA08B01CBC90469946A246F0BD8023DB0502F02CFA02000B0021
:403F00003000390002F052FD040048460D0003F095FF2200029003912B00200029000494059503F067F904000D00A24B020043449A460B000094019503F05CF904000D007B
:403F40009D4A9E4B03F056F99D4A9E4B02F002FA22002B0003F04EF99B4A9C4B02F0FAF922002B0003F046F9994A9A4B02F0F2F9009A019B03F03EF9974A00900191974BD0
:403F80002000290003F036F9954A964B02F0E2F922002B0003F02EF9934A944B02F0DAF922002B0003F026F90B0002000098019902F0D0F90D0041468D4B04005B1A51464C
:403FC0000B43002B54DD00228A4B3000390003F011F932003B0003F00DF94B460A00010000910192002B72D1130029000200200002F0B0F9049A059B03F0FCF802000B00FB
:404000000098019903F070FB02000B003000390003F06AFB68E7002200230020764902F0C5FC61E7754A764B3000390003F0E2F802000B0000206F4903F056FB320004009F
:404040000D003B003000390003F0D4F80B0002002900200003F0CEF84B4604000D00002B72D102000B003000390003F03DFB3BE74B46002B00D1C5E002980399494A4A4B5E
:4040800003F0B8F82200009001912B003000390003F02AFB049A059B03F0ACF8434A04000D0002980399424B03F0A4F802000B002000290003F018FB32003B0003F014FBDD
:4040C00002000B000098019903F00EFB0CE7354A354B0298039903F08DF8009A019B069007912000290002F035F9049A059B03F081F82E4A04000D00029803992C4B03F045
:4041000079F802000B002000290002F023F902000B000098019903F0E7FA32003B0003F0E3FA02000B000698079903F0DDFADBE602000B0003F0D8FA0022002302F036FC49
:40414000D2E600200021CFE6484603F077FE154A154B0090019103F04DF8144A0290039100980199124B03F045F802000B002000290003F0B9FA32003B0003F0B5FA020032
:404180000B000298039903F0AFFAADE6FFFF0F0000005043FFFFEF7F01FCFFFF645F09000000F03F0000E0FE422EE63F763C7935EF39EA3D86EBF9FF44523EDF12F1C23F4B
:4041C000DE03CB966446C73F599322942449D23F935555555555E53F9FC678D0099AC33FAF788E1DC571CC3F04FA97999999D93F51B806000000E03F000050C355555555DB
:404200005555D53F22002B003000390003F06CFA049A059B02F0EEFFF6E6C046F0B556464D4644465F46F0B41C001300670091B07F080093019406000D0080468946A246F5
:404240003B4332D06E4B6C0064089C4229DC26D09F4226DC6A4B9F4200D189E000239B464B46002B00DA87E0002A2FD1644B9F4200D19FE0634B9F425DD08023DB059A4578
:4042800001D100F0C1FB604B9A451FD14B46002B1CDB3000290000F0F7FC060007E000280DD05A4BE01830430BD100265549300011B03CBC90469946A246AB46F0BDA74268
:4042C000C8DD534800F0E6FD0600F0E73000290000F0D0FD4346002B1DD0EB0F013B98465B464246134379D04A4B9F4200DC9FE0494B9F4201DC00F0CEFB484B9C4279DD98
:404300005346002B79DD464A464B1000190002F071FF0600CBE7002C04D03A4AAB009B089342DAD15346002B00DAADE34B46002B0DDB0600BBE753462900002BB7DA320083
:404340002B0000202F4902F031FB0600AFE72F4B9C465B4664441C4301D100F02BFC5B460600012BA3D180231B069C4661449EE7002A00D172E794E72B4B9F422BDC274B1D
:404380009F4200DC70E729493B158C466344142B01DC00F0F2FB3421CB1A0099D94008009840824200D05FE70123194001335B1A9B4659E7154BE018064300D175E7174B98
:4043C0009C4200DC51E35346002B16DB009B019C1E0021006BE702239B4645E732002B003000290003F080F902000B0002F0DEFA06005CE75346002B85DB0026002156E735
:404400000000F07F0000F03F0000E03F000010C0288700000000E0410000F043FFFFEF3F9C7500883CE4377EFFFF3F4301FCFFFFE84B00229C4206DC0022E74B02F0DAFEA4
:4044400035220C005242E54D2315AC46634499462403E34DE34B240B914425439C4209DDE14B9C4200DCA9E301239C46DF4BE1449C466544002300240022089309940C931C
:404480000D940024D64B06920793069A079B29000A900B9103F028F9069A079B06000F000A980B9901F056FF02000B000020CC4902F07CFA0A00010013000E910F92020042
:4044C0003900300002F096FE0A0001008020049105921300002280210003844602920393002289056D100D4365442B190298039914001D0002F07EFE02000B003000390074
:4045000003F0F2F8069A079B06000F002000290003F0EAF802000B000A980B9903F0E4F8029A039B02F066FE02000B003000390003F0DAF80E9A0F9B02F05CFE049D059E5A
:40454000069007912A0033002800310002F052FE06000F00A64AA74B02F04CFEA64AA74B01F0F8FE32003B0002F044FEA44AA54B01F0F0FE32003B0002F03CFEA24AA34B48
:4045800001F0E8FE32003B0002F034FEA04AA14B01F0E0FE32003B0002F02CFE9E4A9F4B01F0D8FE320004000D003B003000390002F020FE02000B002000290002F01AFE75
:4045C000029E039F04000D000498059932003B0001F0C0FE069A079B02F00CFE22002B0001F0B8FE32000A900B913B00300039000296039702F0FEFD0022894B04000D00AE
:4046000001F0A8FE0A9A0B9B01F0A4FE00260F0032000B000298039902F0ECFD0022029003917F4B3000390003F05EF822002B0003F05AF802000B000A980B9903F054F89B
:40464000049A059B02F0D6FD320004000D00069807993B0002F0CEFD02000B002000290001F078FE04000D0002000B000298039901F070FE0026E0226A4B120630000F001A
:4046800002F0B8FD029A039B049005913000390003F02AF802000B002000290003F024F8614A604B02F0A6FD604A04000D00604B3000390002F09EFD02000B00200029006F
:4046C00001F048FE0C9A0D9B01F044FE060048460F0003F0B3FB04000D000498059932003B0001F037FE089A099B01F033FE22002B0001F02FFE002022002B00029003917A
:4047000002F0F2FF089A099B02F0EEFF049A059B02F0EAFF02000B003000390002F0E4FF049005915B464246013B134300D197E100232B4C069307940098019900260B00AE
:4047400032000F0002F0D0FF029A039B02F052FD009A019B04000D000498059902F04AFD02000B002000290001F0F4FD04000D00029803993B0032000494059502F03AFDBB
:40478000009001910B0002002900200001F0E2FD284B81460F008A46994200DC3CE1264BCB18034300D0DBE104980599234A244B01F0D0FD009A019B04000D0048463900BC
:4047C00002F092FF02000B002000290000F01AFE3E0037E0FFFF0F000000404301FCFFFF0000F03F8E98030079B60B000000F0FFEF4E454A287ECA3F65DBC9934A86CD3F84
:4048000001411DA96074D13F4D268F515555D53FFFAB6FDBB66DDB3F033333333333E33F0000084009C7EE3FFD033ADCF5015B14E02F3EBEFFFF8F40000070BFFE822B654F
:404840004715973C002800D08AE18022E74B52039C461300361566443341E549DB195E001C001B038C461B0B13431422760DE14F66443741961B334198465346BC43002051
:404880002100002B00DAA9E102000B000098019902F02AFF0B000090019102000498059901F058FD43461B05994600200022D24B06000F0002F09EFC009A019B029003915B
:4048C0003000390002F010FF02000B000498059902F00AFFC94ACA4B02F08CFCC94A04000D00C94B3000390002F084FC02000B002000290001F02EFD04000D0002000B00C7
:404900000298039901F026FD029A039B06000F0002F0EAFE02000B002000290002F0E4FE3200009001913B003000390002F062FC04000D00B54AB64B02F05CFCB54AB64B37
:4049400002F0D2FE22002B0002F054FCB34AB44B01F000FD22002B0002F04CFCB14AB24B02F0C2FE22002B0002F044FCAF4AB04B01F0F0FC22002B0002F03CFC02000B00F7
:404980003000390002F0B0FE04000D0002000B003000390002F02EFC8023029003910022DB052000290002F09FFE02000B000298039901F0FBFF009A019B04000D00300003
:4049C000390002F017FC009A019B01F0C3FC02000B002000290002F087FE32003B0002F083FE02000B000020924902F07DFE4B465B181A15002A00DCF4E01900069A079B09
:404A000002F0F8FB060052E4320030002B00290002F0F0FB06004AE4874B4E0076089E4200DCBFE0854BCB1803430CD1009A019B02F05AFE02000B000498059900F0D8FC34
:404A4000002800D101E7069807997D4A7D4B02F0D1FB7B4A7B4B02F0CDFB0600FFF727FC0023794C0693079466E65346002B00DBC3E4009B019C802212061E0094462300AB
:404A800063441900FFF713FC02000B000020694901F08CFF4AE46D4B9C4200DCAAE4654B9C4201DDFFF72CFC0022624B02F01CFEC022674BD20504000D0002F09BFB654A90
:404AC00006000F00644B2000290002F093FB002202900391614B2000290002F08BFB02000B005F485F4902F0FFFD22002B0002F081FB02000B0000205B4902F0F5FD220098
:404B0000049005912B002000290002F073FB02000B000498059902F06DFB544A4C4B02F069FB02000B000298039902F0DDFD02000B0004000D003000390001F00BFC00229B
:404B400010003B0032000290039102F0CDFD02000B002000290002F0C7FD04900591E1E5434A444B0698079902F044FB404A414B02F040FB0600FFF79AFB002A01D0FFF78A
:404B8000A5FB1432D31A3A001A41110099408F4201D0FFF76FFB012313400222D31A9B46FFF768FB304B9E4200DD4EE60023994698467AE602000B00FFF714FC80232E4C03
:404BC000DB05089309942D4B2D4C00220C930D9480242C4BE4020692079356E443465B42984651E6424600F0FDF907E702FCFFFF01FCFFFFFFFF0F00432EE63FEF39FAFE8C
:404C0000422EE63F396CA80C615C20BED0A4BE726937663EF16BD2C541BDBB3E2CDE25AF6A56113F93BDBE166CC1663F3E5555555555C53F0000F03FFFCB904000346F3F9F
:404C400059F3F8C21F6EA5010000F0BFFEFFEF3F4715F73F44DF5DF80BAE543E0000D03F555555555555D53F0000E03FFE822B659C7500883CE4377E03B8E23F06D0CF434A
:404C8000EBFD4C3E0000F83FF0B556464D4644465F46754BF0B40A000D00190083B0060004002940994200D1BAE0002D00DC94E02D1500D1A3E06D4B12039C468023120B46
:404CC0005B0365441A43EB0700D581E06B109846E30F9B189B18802216210026002764009203B818984202DC87181B1AB618E00F5B0001391B18640052080029F1D10022AC
:404D000001929446802212062020914609E09F4241D0E10FC9180138CB186400520800281ED0614651189F42F1DA8D18AC46CD0FED07BA464D4539D0DB1B8C42BF417F4256
:404D4000DB1B641A019901388B46934459460191E10FC9185746CB18640052080028E0D123432BD1019B5B08414972108C466244F10702D5802109060B43414609058D183F
:404D80001E002F003000390003B03CBC90469946A246AB46F0BDA1420ED88D18AC46CD0FED074D4548D09A460023CAE76546002DC2DB7D1CAA46BFE73B00AAE7019B013389
:404DC0003ED0019A01239446134063445B08CBE7E30F52009A18640078E76B005B0803432F00002BCED00025002A31D1E20A153D6405002AFAD080235B031A4223D180205B
:404E00000023400300E00B005200591C0242FAD02020401AED1A2300C3408C401A434AE702002B00290002F0E5F932002B0001F091FA06000F00A5E76546002DB9DAB2E787
:404E40000136002390E7012320205B420021E1E73B000200390002F047FC02000B0001F0A5FD06000F008DE70000F07F01FCFFFF0000E03F49004B0819007047034B480018
:404E80009C4640086044C00F7047C0460000108000207047002001497047C0460000F87FF0B5474680B4CB0F98464A4C4B005B0D1E1982B007000A00132E35DC002E57DB00
:404EC000454B040033411F000F4007430D00002F24D05B081C000C4020430027002807D0132E00D172E08022D202324199430A434346DE00394B11009E1934687568380094
:404F000022002B0001F026FA009001910098019922002B0002F0E8FB04000D002000290002B004BC9046F0BD332E0CDD80230400DB000D009E42F1D102000B0001F00AFAD1
:404F400004000D00EAE7264C0D00A446012463446442DC40A446614604000142DED049080142C5D08027FF051F4188430743BFE74B005B08034304000D00002BCED00B0307
:404F80001B0B03435A42134380221B0B120313404A0C5204134319004346104ADB00D3181C685D6822002B0001F0D4F9009001910098019922002B0002F096FB42464B0054
:404FC0005B08D607334304001D00A7E780273F0689E7C04601FCFFFFFFFF0F0030870000EDFBFFFF4B0070B55B0D14000A00002B1AD14B005B08034315D00022224B02F0DF
:40500000F9F8224B0A009C4222DB4B005B0D363B1F4DE318AB4220DC002B0DDD1D4C1B0522401A43110070BD1B4DAB42F0D102000B0001F08FF9F6E71D00353518DA174BCA
:4050400002009C420ADC0B001548164900F032F8134A144B02F0CEF8E5E702000B001248124900F027F8104A104B02F0C3F8DAE7084C363322401B051343190000220C4B2E
:4050800002F0B8F8CFE7C04600005043B03CFFFFFE070000FFFF0F80FF07000050C3000059F3F8C21F6EA5019C7500883CE4377E0000903C30B54A00DB0FDB0752081A4345
:4050C000110030BD002243088B4274D303098B425FD3030A8B4244D3030B8B4228D3030C8B420DD3FF22090212BA030C8B4202D31212090265D0030B8B4219D300E0090ADC
:40510000C30B8B4201D3CB03C01A5241830B8B4201D38B03C01A5241430B8B4201D34B03C01A5241030B8B4201D30B03C01A5241C30A8B4201D3CB02C01A5241830A8B42C5
:4051400001D38B02C01A5241430A8B4201D34B02C01A5241030A8B4201D30B02C01A5241CDD2C3098B4201D3CB01C01A524183098B4201D38B01C01A524143098B4201D339
:405180004B01C01A524103098B4201D30B01C01A5241C3088B4201D3CB00C01A524183088B4201D38B00C01A524143088B4201D34B00C01A5241411A00D201465241104647
:4051C0007047FFE701B5002000F0F0F802BDC0460029F7D076E7704703460B437FD4002243088B4274D303098B425FD3030A8B4244D3030B8B4228D3030C8B420DD3FF2281
:40520000090212BA030C8B4202D31212090265D0030B8B4219D300E0090AC30B8B4201D3CB03C01A5241830B8B4201D38B03C01A5241430B8B4201D34B03C01A5241030B3C
:405240008B4201D30B03C01A5241C30A8B4201D3CB02C01A5241830A8B4201D38B02C01A5241430A8B4201D34B02C01A5241030A8B4201D30B02C01A5241CDD2C3098B423A
:4052800001D3CB01C01A524183098B4201D38B01C01A524143098B4201D34B01C01A524103098B4201D30B01C01A5241C3088B4201D3CB00C01A524183088B4201D38B0094
:4052C000C01A524143088B4201D34B00C01A5241411A00D201465241104670475DE0CA0F00D04942031000D34042534000229C4603098B422DD3030A8B4212D3FC228901D9
:4053000012BA030A8B420CD3890192118B4208D3890192118B4204D389013AD0921100E08909C3098B4201D3CB01C01A524183098B4201D38B01C01A524143098B4201D3E0
:405340004B01C01A524103098B4201D30B01C01A5241C3088B4201D3CB00C01A524183088B4201D38B00C01A5241D9D243088B4201D34B00C01A5241411A00D2014663461A
:4053800052415B10104601D34042002B00D54942704763465B1000D3404201B5002000F005F802BD0029F8D016E770477047C0468446101C62468C46191C634600E0C04680
:4053C0001FB501F0ADFE002801D40021C8421FBD10B501F001FE4042013010BD10B501F09FFE002801DB002010BD012010BDC04610B501F095FE002801DD002010BD01206F
:4054000010BDC04610B501F027FE002801DC002010BD012010BDC04610B501F01DFE002801DA002010BD012010BDC0468446081C6146FFE71FB500F007FC002801D40021C3
:40544000C8421FBD10B500F093FB4042013010BD10B500F0F9FB002801DB002010BD012010BDC04610B500F0EFFB002801DD002010BD012010BDC04610B500F0A1FB0028F6
:4054800001DC002010BD012010BDC04610B500F097FB002801DA002010BD012010BDC046002B15D1002A13D1002906DB01DC002806D00020C043410802E0802109060020E1
:4054C00007B4024801A14018029003BDE1FEFFFF03B4684601B5029800F09EF8019B9E4602B00CBC7047C046F0B54F464646C0B41604360C9946330005042C0C070C150C6F
:4055000063437E436F4365431C0CAD1964199C46A64203D980235B02984647446346250CEF191D044B464A4343432D0C240464199918C91920000CBC90469946F0BDC046C8
:405540009E2110B5C905041CFFF7A0FF002803D1201C00F057FE10BD9E21201CC90500F0CBFC00F04FFE80231B069C466044F2E770B500220C4B04000D00FFF74DFF0028E1
:4055800004D12000290002F023FC70BD064B00222000290002F0A8F802F01AFC80231B069C466044F1E7C0460000E04110B50021041CFFF74DFF002803D1201C00F00CF87C
:4055C00010BD80231B06E01800F006F802000B00002150429941F3E770B502F0A9FC00220B4B0D00040001F005FEFFF7C1FF060002F066FC0022074B01F0FCFD02000B000C
:405600002000290002F070F8FFF7B2FF310070BD0000F03D0000F041F0B583B016001F000090019102F082FD04000D0002000B0030003900FFF758FF009A019B121A8B41C2
:40564000089920000A604B60290003B0F0BDC046F8B54A02430244004E00C50F240E28009B09360EC90F92098D4259D0A01B002800DC8DE0002E1AD1002A00D079E05A077B
:4056800004D00F221A40042A00D004335A0138D50134FF2C00D189E028009B015B0AE4B25B02E4055B0A2343C0071843F8BDFF2CE5D08021C9040A431B2800DD89E0160073
:4056C0002021C640081A8240511E8A4132439B1A5A0114D59B019E09300002F009FD05388640844265DC041B330020200134E340041BA640721E964100243343BFE75A076B
:40570000BFD1DF082800FF2C2FD1002F00D187E08022D20313003B435B025B0AFF24BFE7A11B002949DD002E29D0FF2CA7D08026F60432431B2900DD8DE017002026CF40C2
:40574000711A8A40511E8A413A439B185A01D6D50134FF2C64D0012276491A405B080B4013438CE7031ECAD100207B025B0AE4B296E701380028AAD0FF2C9DD17FE7002A48
:4057800000D17CE701390029DFD0FF2CD2D176E7002820D1601CC0B2012853DD80279E1AFF0437402FD0D61A0D0095E72800002376E7614B241A334061E700294DD1611CB6
:4057C000CEB2012E2FDDFF292AD09B185B080C0055E701227BE7002C1BD1002B5BD0C04300280CD0FF2E7ED01B2800DD92E01D002024C540201A8340581E83412B43D31A6F
:4058000034000D0064E7002E00D065E700200024ABE7FF2E67D08024E40440422343E3E7FF2400233CE7002C61D1002B7ED0002A00D124E79B185A0100D460E73E4A0C0017
:4058400013401CE7002C1ED1002B2FD1002A66D013000D0013E7012277E7002C1FD1002B5AD0C94300290BD0FF2E50D01B295FDC1F002024CF40611A8B40591E8B413B43CB
:405880009B18340062E7002B1CD1002A4AD013000D00FF24F3E6130034000D00EFE6FF2E35D08024E40449422343DFE7002A00D1E5E68027981AFF04074000D152E7D31A42
:4058C0000D00DCE6FF24002A00D1D8E68020DB08C003034204D0D208024201D113000D00DB00FF24CBE61300FF240D00C7E6002B0DD0FF24002A00D1C1E68021DB08C903D2
:405900000B42EDD0D2080A42EAD11300E8E71300FF24B4E6012372E713003400AFE60027002022E780270020FF03F1E61300A6E60123A5E7FFFFFF7DFFFFFFFBF0B556467F
:4059400044465F464D46F0B444024600C70F83B08846650A360EBA463DD0FF2E22D00023EC00802599469B46ED0425437F3E43465C025800DB0F640A000E984636D0FF2845
:4059800030D080230021E400DB041C437F38301A0190484642460843724E800030587A4013008746002D44D108239946063B9B46DDE70122FF2000241A406402C305640A1E
:4059C000D2071C431443200003B03CBC90469946A246AB46F0BD002D20D104239946033B9B46C4E7002C17D1022102E0002C0AD10121321A01924A4643460A435A48920069
:405A000082587B409746200002F072FB431F76309C4040420021BAE70321B8E7280002F067FB431F9D4000237630464299469B469DE70C239946093B9B4698E780240022C2
:405A4000E403FF20B9E70024C2468B465A465346022AAED0032A7DD0012A31D1012200201A400024A9E70122101A1B2856DD1A4000200024A1E78023DB031D424BD1802320
:405A8000DB032B435C02640A3A00FF2095E76D016001854230D2019A0024013A01921B220127290064006D00002901DBA84201D82D1A3C43013A002AF3D16A1E95412C43F1
:405AC00001987F300028CEDD620704D00F222240042A00D00434220103D5244A019814408030FE2800DD64E70122A401640AC0B21A4062E72C00A9E72D1A1A220124CFE7CC
:405B00006B02BCD500248023DB031C436402640A4246FF2051E71C42B3D1F4E721002022C140101A8440621E94410C43620704D00F222240042A00D00434620104D5012298
:405B400001201A40002438E70122A401640A1A40002032E78023DB031C436402640A5246FF202AE74087000080870000FFFFFFF7430270B542004C005D0AC30F4802120EC5
:405B8000460A240EC90FFF2A0FD0FF2C11D00120A24200D070BDB542FCD18B420DD0002AF8D12800431E9841F4E70120002DF1D1EBE70120002EEDD1E9E70020EAE7C04621
:405BC0004302F0B542005D0AC30F4802440A4800120E000EC90FFF2A1FD0FF2822D0002A09D16E426E4100280FD1002C0DD10020002D09D005E0002801D1002C01D08B42E5
:405C000013D0584201231843F0BD002EF7D048424141012049420843F6E7002DDDD002204042F1E7002CDAD0F9E78242E9DC04DBA542E6D80020A542E6D2584243410120CF
:405C40005B421843E0E7C0464302F0B542004C005E0AC30F4802120E450A240EC90FFF2A17D0FF2C19D0002A0BD170427041002C17D0002807D04842414101204942084348
:405C8000F0BD002C13D08B4214D0584201231843F6E70220002EF3D1E3E70220002DEFD1E1E7002DE5D10020002EE9D0EDE7002DE9D1EAE7A242E8DC04DBAE42E5D8002002
:405CC000AE42DDD25842434101205B421843D7E7F0B557464E4645464300E0B446028846760A1F0EC40F002F47D0FF2F25D0002380259A469946F600ED042E437F3F4346B3
:405D000042465D02D20F5B006D0A1B0E904640D0FF2B39D080220020ED00D20415437F3BFB1842465746591C62408C4607430F2F5CD86F49BF00C9598F46002E45D1082336
:405D40009A46063B9946DAE7424602282DD0032800D1C3E0012800D0A2E0002500260240D4B27602ED05760A2E43E407264330001CBC90469946A246F0BD002E1AD1042345
:405D80009A46033B9946BAE72A00511E8A41901CC6E70120002DC3D0280002F0A9F9431F76309D4043420020BAE70124FF2514400026D6E7300002F09BF9431F9E40002327
:405DC000763047429A46994699E70C239A46093B994694E780260024F603FF25C1E735004846B2E7350022004846AEE72904090C0800370C3604360C2C0C794370436743C9
:405E00007443060C64183619B14203D980214902884647440004000C310409188D01681E8541890E2943350CED19AD010D43290104D5012369081D4063460D4319007F317B
:405E4000002925DD680704D00F202840042800D00435280103D5274980330D401900FE29A3DC0124AD016E0A1440CDB279E78020C003064207D0054205D128434602760A68
:405E80004446FF256DE706437602760AFF2568E70124611A1B2905DD14400025002660E76346CBE72E002023CE40591A8D406B1E9D412E43730704D00F233340042B00D09C
:405EC0000436730104D5012401251440002648E70124B601760A1440002542E780260124F6032E437602760A1440FF2539E7C046C0870000FFFFFFF7F8B54A024E00430297
:405F00004400240EC50F9B09360EC90F9209FF2E00D183E001204140A01BA9425CD0002800DC95E0002E1CD1002A00D081E05A0704D00F221A40042A00D004335A013BD598
:405F40000134FF2C00D191E001209B015B0AE4B205405B02E4055B0AED0723432B431800F8BDFF2CE3D08021C9040A431B2800DD90E016002021C640081A8240511E8A419E
:405F800032439B1A5A0115D59B019E09300002F0AFF80538864084426CDC041B330020200134E340041BA640721E964100243343BDE70D005A07BCD1DF0801231D40FF2C33
:405FC00033D1002F00D190E08022D20313003B435B025B0AFF24BCE700284FDD002E2ED0FF2CA4D08025ED042A431B2800DD97E016002025C640281A8240501E82413243D9
:406000009B185A01D5D50134FF2C6DD001227B481A405B08034013430D0088E7002A00D07AE777E7031EC5D100257B025B0AE4B28FE701380028A4D0FF2C97D177E7002AE0
:4060400000D174E701380028DAD0FF2CCDD16EE7002821D1601CC0B2012858DD80279E1AFF0437402FD0D61A0D008FE701231D4000236EE7624B241A334058E7002851D13A
:40608000601CC6B2012E33DDFF282DD09B185B0804004CE7012274E7002C1AD0FF2E1FD08024E404404223431B2800DD96E01D002024C540201A8340581E83412B43D31A8A
:4060C00034000D005EE7002E00D05FE700250024ABE7002B44D0C0430028F0D0FF2EE3D11300FF240D0022E70D00FF24002330E7002C5DD1002B7DD0002A00D117E79B18BC
:406100005A0100D456E73E4A040013400FE7002C1ED1002B2FD1002A65D013000D0006E701226DE7002C1FD1002B59D0C04300280BD0FF2E4FD01B285EDC1D002024C54050
:40614000201A8340581E83412B439B18340058E7002B1CD1002A49D013000D00FF24E6E6130034000D00E2E6FF2E34D08024E40440422343DFE7002A00D1D8E68027981A51
:40618000FF04074000D14DE7D31A0D00CFE6FF24002A00D1CBE68020DB08C003034204D0D208024201D113000D00DB00FF24BEE6002B10D0FF24002A00D1B8E68020DB08B7
:4061C000C003034203D0D208024200D11300DB000D00FF24ABE61300FF24A8E601236EE713003400A3E6002700251EE780270025FF03E9E613009AE60123A6E7FFFFFF7D6D
:40620000FFFFFFFB4302590A4300C20F1B0E00207E2B0EDD9D2B0DDC802000040143952B0BDC9620C31AD9400B005842002A00D118007047034BD018FBE7963B99400B00A5
:40624000F3E7C046FFFFFF7F70B5002830D0C317C5185D40C40F280001F04AFF9E231B1A962B0DDC9622D21A95406A02520AD8B25202C005520AE40702432243100070BD3A
:40628000992B19DC9922D21A9540124A2A40690704D00F210D40042D00D00432510103D50C4B1A409F231B1A9201520AD8B2DFE7002400200022DBE705222E00121AB92157
:4062C000D6402A00C91A8A40551EAA4135001543DBE7C046FFFFFFFB70B5041E28D001F007FF9E231B1A962B0ADC9622D21A94406202520AD8B25202520AC005104370BD7C
:40630000992B18DC9922D21A9440114A2240610704D00F210C40042C00D00432510103D50B4B1A409F231B1A9201520AD8B2E2E700200022DFE705222500121AB921D540FD
:406340002200C91A8A40541EA2412C001443DCE7FFFFFFFBF8B556465F464D464446F0B40F00FD0FAA4609037C002E005F00450F490A7F0D2943C5001803BC46400A570FBB
:40638000640DDB0F3843D2009A4500D1AAE06646A61B002E00DCFFE06346002B39D10300134300D0D9E06B0709D00F232B40042B05D02B1DAB42AD416D4249191D000B029B
:4063C00000D482E0CA4B01349C4200D1FEE00A005646C84BED081A405007640552020543120B640D002112030B0D1B056405120B1A436308C04CF60714401C436400640856
:406400003443280021003CBC90469946A246AB46F8BDB74B9C42C6D080231B041843382E00DDEBE01F2E00DD1EE120239B1B9C4603006746BB40984613004746F3403B43E2
:406440006746BA40571EBA4113430200F240EB1A9D42B6411D008A1A7642911B0B0231D54A02560A002E00D1B4E0300001F040FE0300083B1F2B00DDB5E020222900D21A71
:40648000D1409E400A009D4032439C4200DDB1E01C1B631C1F2B00DDD5E0202114002800C91A8C40D8408D400443DA40681E854111002543002476E74146314300D134E219
:4064C000310045466B0700D06FE756464807ED08C9080543864B9C4235D00A036405120B640D7FE76346E31A9B46002B00DC8BE06746002F3CD07E4FBC4200D153E78027D3
:406500003F0438435B46382B00DCF7E00243501E82410020D2B253194218AB4289411D00494289180B02CDD5714B01349C4200D13DE101206F4A6B080A4028401843D50763
:40654000054351082FE72B000B4300D1CBE180231B030B431A03120B44E7013E002E6DD1AE1AB5429B41091A5B42C91A350075E70700174300D116E701235B429C46E34487
:406580005B46002B00D0E0E0AA18AA429B4109185B4259181500C5E7002E75D1661C7605760D012E00DCF3E0AE1AB0464545BF410E1A7F42F61B370200D48FE0551BAA4219
:4065C000B641411A76428E1B9A464BE756460022002507E7280001F08BFD20300300083B1F2B00DC49E72A002838824000259C4200DC4DE73F49E41A1140D4E60243501ED5
:406600008241D3B2002222E7002B00D0F3E0631C9C465B055B0D012B00DC9FE0344B9C4500D1C3E0AA180918AA42804140424118CD075208154349086446B4E62C4B9C42BA
:4066400000D0ECE6AFE611001F3CE1400C00202B00D17FE04021CB1A9A4015436A1E95410021254300242DE733000700203BDF403B00202E70D04027BE1BB0400243501ED8
:40668000824113430022E2E6002C4FD0184CA44500D1ABE08024240476422143382E00DDDFE01F2E00DD43E12027BC1BA1460C004F46BC40A0462C004746F4403C434F4622
:4066C000BD406F1EBD41F1402C43151BAA429241411A5242891A64469A46BFE641464546314300D0BEE6002600240025F2E6C046FF070000FFFF7FFFFFFF0F801F2B59DCED
:406700002027FF1ABC46070063469F405B46B9461700DF40B8464F4643461F4363469A40531E9A415B463A43D840F4E60C002C435CD0F643002E55D1551BAA42A441411A65
:406740006442091B9A46644688E6964FBC4200D0D8E628E6002280E700208FE70B002B43002C00D0C2E0002B00D101E10300134300D118E6AB18AB42B64109187642711893
:406780000A0200D409E1884A1D00114064460AE6002C5BD10E002E4300D08AE00100114300D1C2E0010015009A46FCE56446002100258FE620235B429C46DC44634607008E
:4067C000DF405B46BC46202B00D1ACE040235F46DB1B98400243501E8241634613431A00002098E66F4CA44500D057E70100150064469A46D7E5002C39D10C002C436ED02F
:40680000DB43002B1AD0674CA44568D0382B00DDA4E01F2B00DDAEE020240F00E41AA740B9462F00DF40B846A3464F46444627435C46A5406C1EA541D9403D43AD189542B7
:406840009B4109185B42591864466BE60C002C4315D1010011437BD0010015009A46514CA1E50D43691E8D410021ECB22DE74D4CA44534D0802424045B422143C6E704007C
:4068800014434ED0ED084C072C438025C9082D03294208D0C6082E4205D1D208410711430C009A463100620FC900E50011433D4C79E50600164300D175E5AE1AB0464545F0
:4068C000BF410E1A7F42F61B370200D4F4E5551BAA42B641411A7642891B9A4663E50100150064465FE5002200257BE5002B3BD00300134315D0ED084B072B438025C9083C
:406900002D03294207D0C4082C4204D141070B002100D2081343C9005A0F1143DD00214C41E5204C3FE5002054E700260025D1E534000F00203CE7403C00202E2BD040279E
:40694000BE1BB1400D43691E8D4100212C43BCE6802100260903134C0025BBE50D43691E8D410021EDB269E7010015000D4C1AE50100150017E51C000F00203CE7403C0060
:40698000202B0CD04027FB1A99400D43691E8D410021254352E70021D4E71D0092E50021F3E7C046FF070000FFFF7FFFF0B556464D4644465F46F0B41D000E034C00CB0F06
:4069C00087B0070092468146360B640D98466AD06D4B9C4235D08022430F12041343F6001E43C3009946694B00279C460023644402932B0368001B0BED0F51469B46400D62
:406A0000009500D178E0604B98426CD05B46DA004B0F802109040B4313439B465346D9005A4B9C46002360444246201A6A40924601901F430F2F00D9B0E05548BF00C059BC
:406A40008746374300D088E0002399460233082700260293CDE74346B34649460093029B009A9246022B00D0BFE1002153460122002689461A40444B002136030C0D24051B
:406A8000360B2643434C1B0526401E437600D207760816434846310007B03CBC90469946A246AB46F0BD330003434FD0002E00D1BCE1300001F01CFB03000B3B1C2B00DD0E
:406AC000ADE11D220100D31A08393A008F408E40DA40B9461643304B00279C46002360444442029385E753465A4613432CD1002300219B46023397E70B4320D05B46002B11
:406B000000D19EE1584601F0F3FA03000B3B1C2B00DD8FE102005946083A91408B461D21CB1A5146D9400B0059460B4351469B469140194B9C4660444042002374E7002306
:406B400000219B4601336FE703236DE70023994601330427002602934BE703230C27029347E70122D51A382D00DCB0E153461A4000210023002689467EE700238026994688
:406B800000223603004B77E7FF07000001FCFFFF00880000FFFF0F80F30300005E4500D972E100D16DE1019B4D46013B01930023340002935B461E020B0E1E430B0203930E
:406BC000330C994633041B0C494620000093FEF779FA009B370043430600494620009846FEF7F6FA2C0C09040C43A04509D9E419731EA74200D95CE1A04500D859E1023E80
:406C0000E4194346E41A49462000FEF75BFA0300009A80465343494620009B46FEF7D8FA2A040904120C0A4393450DD94346D219013B974200D93AE1934500D837E10223B9
:406C40005B429C46D219E0445B46D21A4346360433439B460399180C0B0C1D00059309045B46090C0C001B041B0C4443049159436B4368431B190D0CEB189C4203D980247F
:406C80006402A44660441C0C09041B04090C20185D18824200D2DEE000D1D7E0161A029B9C465D1BAC459B415B42F61AB74200D106E149463000FEF705FA009B04004343C4
:406CC000494630009846FEF783FA2E0C09040E43B04509D9F619631EB74200D9F3E0B04500D8F0E0023CF6194346F31A494618000293FEF7E7F9009B060043434946029800
:406D00009846FEF765FA2D0409042D0C0D43A84509D9ED19731EAF4200D9D6E0A84500D8D3E0023EED192404210043463143049E059A3000ED1A0B040C0C1B0C5843664366
:406D4000534354439A19030C9B189E4203D980225202944664441A0C00041B04000C14191B18A54250D34DD001231943964A019B94466344002B00DCF3E64A0709D00F22A9
:406D80000A40042A05D00A1D8A42894149428B4411005A46D20108D55A468C4B1A4093468022D2009446019B6344894A934200DD5BE65A46C90850070843560251460122E8
:406DC0005B058146360B5B0D0A4055E680231B031E4211D05A461A420ED15E461E433603360B2A0089467B4B46E6032B00D1E1E0012BBBD11A40BBE61E433603360B424621
:406E0000744B39E6002BB1D07D194A1EAF4252D91100A542A8D1039A9A42A5D1A6E703003E00283B9E400023994654E601F060F9203041E603005246283B9A400021934670
:406E400077E6504601F054F920305EE6029B0026AB4200D323E7039E0299B44661448846B045B6415B467642F619B218013B0291974213D290424FD800D18EE0161A9B4623
:406E80000DE7894500D28EE674084B46F60735005B081D434B46DB0702938BE69742EDD10399029CA142E5D93E1A9B46F7E69846CAE61E00A5E6AC423ED874D0110053E7FD
:406EC0000121494252E71C000EE71E002BE71F2D3CDC20230A0058465B1B9840EA4099400243481E81415E461143EE404B0709D00F230B40042B05D00B00191D99429B4194
:406F00005B42F61833023CD55346012200211A40002601238946AFE502235B429C46039CE344A446029B63449846A045B6417642F6190293B218B1E603988A1E4100814226
:406F4000B6417642F619AD19039161E71F225242D31A5A46DA401300202D29D040225846551BA8400143481E814107200B4318400026002809D00F2200261A401900042A2C
:406F8000BBD10B0070077602360BDB0803439946012253461A4000236EE502998D42BBD89B4600267BE603989842C5D3110032E70020D7E780265B4636031E433603360BA1
:406FC000009A8946034B57E5FF030000FFFFFFFEFE070000FF070000F0B55F4656464D464446F0B41F035C00DB0F9A46194B0E034D00C90F8046360B6D0D8B4691463F0B9A
:40700000640D9D4219D0134B9C421BD00123A54206D018003CBC90469946A246AB46F0BDBE42F6D1C845F4D1D34510D0002DF0D1304303005A1E9341EBE731000123014318
:40704000E7D1E0E73A430123002AE2D1DEE70023DFE7C046FF070000F0B55F46444656464D46F0B41F033C0B2C4F0E034D00A3465C008446360B6D0DC90F9046640DDB0F9D
:40708000BD422BD0254FBC422ED0002D0ED130430700814678427841002C17D15F463A4314D14B460020002B0AD006E0002C02D15846024301D099421AD00123484218436E
:4070C0003CBC90469946A246AB46F0BD0028F2D058425841012240421043F1E737000743D0D002204042EBE75F461743CDD0F8E7A542E2DC05DB5E45DFD808D000205E45E4
:40710000DED248424841012340421843D8E7C445D3D80020C445F4D3D2E7C046FF070000F0B55F464D4644465646F0B41C03240BA4462F4C0F034D005E00C90F80463F0B64
:407140006D0D8B469146760DDB0FA54220D0284CA64222D0002D12D1384344424441002E20D0002C0DD05C42634101245B421C4320003CBC90469946A246AB46F0BD002EBA
:4071800017D05B4519D05B465C4201231C43EFE7390002240143EBD1D9E7614602241143E6D1D7E761460A43DBD100240028DFD0E9E761460A43E4D1E5E7B54203DD012238
:4071C0005C421443D4E7B542CDDB6745DBD809D000246745CCD259464C426141012449420C43C5E7C845CED80024C845F3D3BFE7FF070000F0B55F4656464D464446F0B423
:407200000D0399464E002B0B87B00700924680469B46760DCC0F002E69D06D4B9E4235D05B468022DD001204430F13432B439B46C3009846674B00279C46002366440193D2
