:400000000020002011000000C1200000C120000010B502F047FB02F05BF8C04610B51A4C12232360182002F0B5FA80225200174B1A60174B174A1A601749184A1160184A0B
:400040001A6088218901174A1160174A1A602022164B1A602032164B1A600232154B1A60013A154B1A6015490B2002F0DDF90B2002F0CEF90022124B1A60002002F01AFB64
:400080001123236010BDC04630001040000301400000014040FF008000ED02000803014042FF00800403014041FF0080280003403001014010010140040101404927000009
:4000C0000C02074010B572B699221204154B1A60EE221202144B1A606022144B1A60144A144B1A602022144B1A60E123134A13601349144A1160144A13601322134B1A608C
:400100000832134B1A60093A124B1A60124A134B1A605322124B1A60FFF780FF01F0D2FE10BDC046000002400003024000000440B61DCB00080004401800044000010440B4
:40014000B06100000801044018010440000204401802044000030440800D0800080304401803044010B5064C2378002B07D1054B002B02D0044800E000BF0123237010BD25
:40018000780100200000000014860000084B10B5002B03D00749084800E000BF07480368002B00D110BD064B002BFBD09847F9E7000000007C010020148600009000002047
:4001C0000000000010B502F0DDFD012805D102F0EDFD002803D0002002E0002000E0012010BDC04610B503F033FB03F049FB642003F008FB03F060FB02F088FC03F038FA22
:4002000003F0EAFC06498C20400003F071FB02F0A1FB02F00FFB02F01DFB02F033FD10BD801A0600F0B583B005002D0A0400240C0F1C0A00120A0B0C074908704D708C70F7
:40024000000EC8700F714A718B71FE20FF3002F011F803B0F0BDC04620030020002306E00C4A9A1811780C4AD15401339BB2062BF6D9094A1178094B197051785970917826
:400280009970D178D970117919715179597192799A71704780FE000020030020A003002084B0F0B54F464646C0B483B0040AA14605000A906846C180080C80468C460B913E
:4002C000141C17003F0A0C921E001A1C0D9314AB1888314901230B704B464B702D148D702D12CD706B4606255B5F0B711B124B7143468B7163461B0ECB710C724F72360E4D
:400300008E720AAB1B8ACB721B0A0B730AAB9B7C4B730AAB14241B5F8B730AAB9B7D5BB2CB730AABDB7D5BB20B744A740AAB18229B5E8B741B12CB740AAB9B7E0B750AABCF
:40034000DB7E4B750AAB1B7F8B750AAB5B7FCB750AAB9B7F0B760AABDB7F4B7620230AAAD35C8B762123D35CCB762223D35C0B772323D35C4B772423D35C8B772523D35C2F
:40038000CB7701F077FF03B00CBC90469946F0BC08BC04B01847C0465C020020F0B54F464646C0B489B0002306E0514A9A181178504AD15401339BB2252BF6D94D4B1B7881
:4003C000002B4AD04C4A13704A4B597851709878D9780902091851801879597909020918918099799171D979D171197A1172597A5172997AD173197B09021182597B9174C4
:40040000997B9182D97B9175197CD175597C1173987CD97C090209181183197D9176597DD176997D1177D97D5177197E9177597ED177987E20215054D87E01315054187FEC
:4004400001315054587F01315054987F01315054D97F2523D154002045E0274C26222749200008F0C6F8FF235B000693228863881B0413439946A288E3881B04134398461A
:40048000238967893F041F43A389E68936041E432500103516222900684608F0AAF8484641463A003300FFF7FBFE154B0693228863881B0413439846A388E7883F041F4321
:4004C0002389668936041E43A389E48924041C4316222900684608F08CF84046390032002300FFF7DDFE09B00CBC90469946F0BD80FF00005C020020F80200202086000096
:40050000FF01000070B5060003F048F9C5B2002D0ED100240FE03555052001F0BDFF074B1B681B0405D403F039F9C5B2013400E00024072CEFD9200070BDC0460803094026
:4005400010B5054B1B68002B02D00448FFF7DAFF0422014B1A6010BDC00F0940E402002070B50C0015001E0002F09CFB200002F081F9322001F090FF02F0D8FAFF240020A2
:4005800005E0022002F0DCFAC0B2013CE4B2002801D1002CF5D1002803D0280002F0E4FA00E00020012E08D002DC002E17D015E0022E09D0032E0CD010E001B2280002F086
:4005C00037FB05F06FF90AE001B2280002F0E2FA05E001B2280002F00BFB00E0002070BD30B585B0002002F0C1FB002002F0D2FB0D2002F085F9352002F05CF9012002F0E1
:400600009DFB002002F0A6FB052001F045FF0323012205210220FFF7A3FF0390012002F08DFB012002F096FB052001F035FF0323012205210220FFF793FF0190052001F010
:400640002BFF019A039B9B1A03930398502104F03FFF0290012002F089FB002002F09AFB012002F06BFB002002F074FB052001F013FF0323012205210220FFF771FF039012
:40068000012002F05BFB012002F064FB052001F003FF0323012205210220FFF761FF0190019A039B9B1A0393039805F049FF041C029805F045FF011C201C05F0BBFA041C5D
:4006C0004E4B1860039805F03BFF051C4C49201C05F07AFC011C281C05F0ACFA494905F0A9FA494B1860039805F02AFF211C05F0A1FA05F003FF0290002002F037FB01201C
:4007000002F048FB012002F019FB002002F022FB052001F0C1FE0323012205210220FFF71FFF0390012002F009FB012002F012FB052001F0B1FE0323012205210220FFF79E
:400740000FFF0190019A039B9B1A0393039805F0F7FE041C029805F0F3FE011C201C05F069FA041C294B1860039805F0E9FE051C2349201C05F028FC011C281C05F05AFA71
:40078000204905F057FA224B1860012002F0EEFA012002F0FFFA052001F07EFE012002F0CDFA012002F0D6FA0323012205210220FFF7D6FE0190052001F06EFE012002F0CE
:4007C000BDFA002002F0C6FA0323012205210220FFF7C6FE0390019A039B9B1A0393039805F0AEFE041C029805F0AAFE011C201C05F020FA074B186005B030BD5402002031
:4008000000007A446666FE41F4020020A8030020AC030020DC020020F0B583B0002301930093002002F046F80323012201210020FFF796FE05F084FE041C012002F07EFA98
:40084000012002F087FA052001F026FE032301220121002001F08CFA05F072FE011CD24B5860201C05F0C4FC041C2423CF4AD35C002B00D1CCE0137A012B41D0002B02D042
:40088000032B79D0B3E0C94B5B78002B04D1C84801F0F4FA051C00E0C54DC34B9C68211C281C04F051FF00280DD0C24B1A68C24B1A60012002F05AFA002002F06BFA012252
:4008C000BE4B1A7093E02523B84AD05C05F038FE011C281C05F08CFC011C201C04F034FF002800D183E0B44B5A681A60002002F03DFA002002F04EFA0022B04B1A7076E0BC
:40090000AA4B5B78002B04D1AD4801F0B7FA051C00E0AB4DA44B9C68211C281C04F014FF00280DD0A34B1A68A34B1A60012002F01DFA002002F02EFA0122A04B1A7056E0D5
:4009400025239A4AD05C05F0FBFD011C281C05F04FFC011C201C04F0F7FE002847D0964B5A681A60002002F001FA002002F012FA0022924B1A703AE08C4B5B78002B04D17B
:40098000904801F07BFA051C00E08E4D864B9C68211C281C04F0D8FE00280DD0854B1A68854B1A60012002F0E1F9002002F0F2F90122824B1A701AE025237C4AD05C05F0CF
:4009C000BFFD011C281C05F013FC011C201C04F0BBFE00280BD0784B5A681A60002002F0C5F9002002F0D6F90022744B1A70052001F052FD0323012201210020FFF7B0FD1F
:400A000005F09EFD684B596805F0F2FB041C05E12223664AD35C002B00D19AE02523D05C07F04AFB684A694B06F022FD07F012FC01900199664805F0DBFB664905F0C4FAFA
:400A400000905D4B1968201C05F0F4F8051C624904F08EFE00281FD0564B1A68564B1A60012002F083F9002002F094F90122534B1A70052001F010FD0323012201210020D8
:400A8000FFF76EFD05F05CFD474D696805F0B0FB041C0023EB60C1E00099281C04F054FE00281CD0444B5A681A60002002F05EF9002002F06FF90022404B1A70052001F021
:400AC000EBFC0323012201210020FFF749FD05F037FD354B596805F08BFB041C9EE0324B1869002104F02AFE002800D196E0FFF769FB002800D091E0FC218905201C05F07C
:400B000063FA294DE8602B4E33682B61012002F02DF9002002F03EF9052001F0BDFC0323012201210020FFF71BFD05F009FD696805F05EFB041C37682F61011CE86805F045
:400B400079F8011C381C05F03FFA30600023EB6064E0164B9B7F012B10D0002B04D0022B17D0032B3CD045E0002002F0FFF8002002F010F9104B5A681A603BE0012002F041
:400B8000F5F8002002F006F90A4B1A680A4B1A6030E0002002F0EAF8012002F0FBF80F4B1A68054B1A6025E094010020F80200200000254454020020940000205002002008
:400BC00000805E440080F6437B14AE47E17A743F0000144200007A4400881047A8030020012002F0C3F8012002F0D4F8134B1A68134B1A60134B9A7F134B1A70052001F0F0
:400C00004BFC0323012201210020FFF7A9FC05F097FC0E4B596805F0EBFA041C201C05F06DFC002101F0C8F805F08AFC044B196805F000F805F062FC03B0F0BDDC02002056
:400C400094000020F80200205002002094010020F8B55B4B5C69201C07F0A8FA0022594B05F0B6FC06000F00201C05F047FC0400451C280007F020FA02000B003000390088
:400C800004F046FD002806D0280005F059FC05F035FC040005E0200005F052FC05F02EFC0400494B5B78002B07D1200005F048FC01F0D2F805F022FC0400FFF7ADFD0500BE
:400CC000414B1B7A012B10D0002B04D0022B16D0032B1ED027E06420604302F01BFA281802F0A2F905F02CFC1EE06420604302F0C3FA281802F052FA05F022FC14E064209D
:400D0000604302F06BFB281802F0FAFA05F018FC0AE06420604302F013FC281802F0A2FB05F00EFC00E00020284904F083FF041C254B5B78002B02D101F0A0F8041C204B4D
:400D40009869002830D005F0FBFB011C201C04F0FBFC00281ED001F0C1FF00282DD0201C05F0CCFB164B9B69C01AC317C0185840022822DD124BDB69002B07D1104B012263
:400D80001A62134A127A52B2DA6116E0013B0C4AD36112E00A4D201C05F0B0FBA8610C4B1B7A5BB2EB6108E0054D201C05F0A6FBA861074B1B7A5BB2EB61201CF8BDC04614
:400DC000940100200000E03FF80200200000C8429400002010B5124BDB7F002B0FD1012001F084FF0A2001F057FB012001F06AFF0A2001F051FB002001F078FF0EE0012B3A
:400E000006D1012001F072FF002001F05BFF05E0002001F06BFF012001F054FF10BDC046F802002070B505000C00434B02229B5E8B420EDD01F052FF002802D0002001F055
:400E400041FF01F05FFF002874D0002001F04EFF70E0394BDB79012B36D1374B9B79CB1A83420ADB01F03AFF002816D101F04AFF002812D1FFF7AEFF0FE081420DDC01F0EC
:400E80002DFF002802D0002001F01CFF01F03AFF002802D0002001F029FF274B9B7C002B48D0254B14229B5E1C19A54204DB01212423224AD1543DE0043CA5423ADA0021AA
:400EC00024231E4AD15435E01B4B9B79CB1881420ADC01F003FF00282CD101F013FF002828D1FFF777FF25E0984223DC01F0F6FE002802D0002001F0E5FE01F003FF00288F
:400F000002D0002001F0F2FE0B4B9B7C002B11D0094B14229B5EE41AA54204DC01212423064AD15406E00434A54203DD00212423024AD15470BDC046F8020020940100207F
:400F400010B5002001F0FAFE012001F003FF424B1C7A231FDBB2022B25D81F2001F0AAFC0223002203210220FFF7FAFA05F0E8FA05F0C4FA09280FDC374B9B7E002B0DD0DD
:400F800001212523354AD154002001F0D7FE002001F0E0FE012402E0002400E001247F2001F088FC56E02E4B18682E4904F0CCFB002801D0282300E05023012C0ED0002CDB
:400FC00004D0022C12D0032C18D01DE05800C0184001C01A05F0B4FA041C16E0D800C01AC000C01A05F0ACFA041C0EE05800C318D800C01A05F0A4FA041C06E04D2058437A
:4010000005F09EFA041C00E0174C0223012203210220FFF7A5FA05F093FA05F06FFA05F08FFA011C201C04F08FFB00280FD00A4B9B7E002B0DD001212523084AD1540020EA
:4010400001F07CFE002001F085FE012402E0002400E00124200010BDF802002094010020940000200000A04200803B45F8B505000E001400180001F01DFC03232200310080
:401080002800FFF76DFA070062B203233100280000F06EFE381AF8BD70B582B00023019300937F2001F006FC002001F047FE012001F050FE664B1A7A531FDBB2012B44D839
:4010C0000E2001F01DFC012001F038FE002001F041FE7F23002205210220FFF741FA01907F23002203210220FFF73AFA0090009A019B9B1A0193019B002001F01FFE012024
:4011000001F028FE002001F031FE002001F042FE0022504B1A707F2305210220FFF7A6FF01900198012100F047FE0190019806F0C3FF494A494B05F077FD0022484B06F09D
:4011400097F904F091FB04005BE0042A58D1062001F0D6FB434C444B1B682360012001F005FE002001F016FE01223A4B1A70012001F0E4FD012001F0EDFD5F230122032199
:401180000220FFF7EDF90090322001F085F9002001F0D4FD012001F0DDFD5F23012203210220FFF763FF0190009A019B9B1A01930198012100F000FE0190019805F0C0F93E
:4011C000216804F037FD05F099F90190019E274B186806F0EBFF0022254B06F049F904000D00300006F068FF22002B0005F01CFD00221B4B06F03CF904F036FB040000E036
:4012000000240E2001F07CFB114B1B7A052B05D1200001F051FE05F093F90DE0062B06D1200001F0A5FEBE3805F08AF904E0200001F0DEFD05F084F90E4904F0FBFC044B32
:401240005B78002B01D100F019FE02B070BDC046F802002050020020CDCCCCCCCC0C834000408F409400002054020020F402002000806C400000C84270B5040001F01AFBA6
:401280000323002204210320FFF76AF90500200006F012FF064A074B06F0EAF804F0E4FA81B2280004F014F905F04AF970BDC046333333333333134010B50E2001F020FB82
:4012C000012001F03BFD002001F044FD0220FFF7D3FF041C1F4904F037FA002804D01620FFF7CAFF041C20E01A49201C04F040FA00280AD01849201C04F026FA002804D02E
:401300000720FFF7B9FF041C0FE01349201C04F02FFA002809D01149201C04F015FA002803D00320FFF7A8FF041C201C04F084FA02F030F90C2100F03FFD05F001F908493D
:4013400004F078FC074B5B78002B01D100F096FD10BDC0460000FA4400D8D64700D856480000C842F802002070B505000C00080007F048F902002100280007F02BF943425F
:401380005841C0B270BDC046F0B55F4656464D464446F0B4ABB062B6FEF724FFDA4802F053FCFEF75BFFD94B5B79012B1FD0D74C0722D7492831200007F01BF92178637894
:4013C0001B020B431A00A078000403001343E078000618432279617909020B001343A17909041943FEF71EFF642001F055F8FEF7D5FFC84C22781DAB1A7062785A70022172
:40140000625E9A701212DA700421625E1A7112125A71A2799A71E279DA71227A1A72627A5A72E27B9A72228ADA72120A1A73A27C5A731421625E9A731622A256DA731722CC
:40144000A2561A74227B5A741821625E9A741212DA74A27E1A75E27E5A75227F9A75627FDA75A27F1A76E27F5A762022A25C9A762122A25CDA762222A25C1A772322A25C6B
:401480005A772422A25C9A772522A25CDA7720229F49303115A807F0ACF8032301220121002000F065FC05F04BF89B4B58600E2001F026FA072001F0FDF902230022002126
:4014C0000020FFF74DF805F03BF8051C03900223002202210020FFF743F805F031F8291C04F086FE051C0790A47D64B2002C11D1884E707A05F024F8291C04F065FD051C95
:401500001823F05E05F01CF8011C281C04F092FB009001E000230093200005F011F8079904F052FD051C7B4E1823F75E380005F007F8041C011C281C04F07CFB051C172025
:401540003056381A04F0FCFF079904F03DFD211C04F070FB041C0223002201210020FEF7FFFF0295291C002004F042FE051C0223F75E0423F05E04F0E3FF291C04F024FD2E
:40158000002104F057FB051C380004F0D9FF291C04F0DAF9604B98600299201C04F028FE08902323F35C002B01D0FFF719F8FFF783FE594B5861574B1B7A043BDBB2022BCB
:4015C00013D8FFF769FD544B9862012705239A46013B0B93013B0A93013B0993013B9B46002398460023069304E0FFF731FB4A4B9862EAE72423484AD35C002B03D00120E9
:4016000001F088FB02E0002001F084FB2423424AD35C002B0CD02C223F498A5C002A18D12D328A5C002A14D12E328A5C002A10D12C2239498A5C002A04D02D213648415C2A
:40164000002906D1002A0AD02E213348415C002905D0F8B201F05EFB013F7F4291E0002B00D08EE0002A27D0099C002C13D05B46002B0AD0012001F04DFB2300013B099362
:4016800001235B429C46E34416E0002001F042FB01239B4610E05346002B07D0002001F039FB01235B429C46E24405E005239A46033B0993013B9B462D23174AD35C002B8F
:4016C00032D00A9C002C13D05B46002B0AD0012001F020FB2300013B0A9301235B429C46E34421E0002001F015FB01239B461BE05346002B12D0002001F00CFB01235B42F9
:401700009C46E24410E0C04641050000A003002020860000F80200209401002005239A46023B0A93023B9B462D23D24AD35C002B27D00B9C002C13D05B46002B0AD00120F3
:4017400001F0E8FA2300013B0B9301235B429C46E34416E0002001F0DDFA01239B4610E05346002B07D0002001F0D4FA01235B429C46E24405E005239A46013B0B93033BB4
:401780009B4602F0A9F8C30700D433E7BA4B9B79012B00D12EE702F027F8012002F0A2F8642002F02FF802F087F8FFF785FDB14B5861FFF7C5FB81460E2001F0A1F807207D
:4017C00001F078F80223002201210020FEF7C8FE04F0B6FE04F092FE032100F0EDFA04F0AFFE039904F004FD0190029904F000FD051C011C009803F0B1FF002832D09F4B41
:4018000002229E5E04241C5F200004F099FE291C04F0DAFB089904F00DFA051C300004F08FFE291C04F090F8051C924B9860301904F086FE041C011C281C03F099FF002812
:4018400001D08C4B9C608D4B1820185E04F078FE019904F0B9FB079904F0ECF904F04EFE80461BE0854C0223E05E04F069FE814B9860607A04F064FE019904F0A5FB0099CE
:4018800004F0D8F90690002103F072FF002805D0002001F017FA002001F028FA0022784B1A704B46002B2FD0002001F00BFA002001F01CFA01212D236E4AD1546F4B5B7FAC
:4018C000002B25D06D4B9B7E002B0ED06D4AD1680B686D4803601269934219D1694B5A690A609A69DB69136012E0664AD1680B6865480360126993420AD1624B5A690A603B
:401900009A691B6A136003E000212D23594AD15402F06CF900282AD001212C23554AD154564B5B7F002B26D02123544AD35C002B0ED0544AD1680B68534803601269934294
:4019400019D1504B5A690A609A695B6A136012E04C4AD1680B684C480360126993420AD1484B5A690A609A699B6A136003E000212C23404AD1542D233E4AD35C002B27D1BD
:401980002C223C498A5C002A22D13C4B1B7A043BDBB2022B04D8FFF77FFB364B986203E0FFF756F9334B9862344B188A04F0C8FD304DA96A03F0C8FF04F0A0FD0400286391
:4019C000A86804F09BFD01002000FFF72BFA06E0002B04D0274B2D4A9A622D4A1A6303222C492D4806F0F6FD00281ED101221DAB1A70294B1A795B791F2A0ED81DA98B541E
:401A0000002304E01DAAD15C0DAAD15401331F2BF8DD0DA9214800F02DFCFEF7BFFC002001F050F9002001F061F91D491A48FFF79BFC00280FD13BE0EB00E3181F2B03D84C
:401A40001DAAD05C01F032FE013400E00024072CF2D9013500E00025042DF7D9002525E0EB00E3181F2B03D815AAD05C01F01EFE013418E094010020A0030020F8020020F3
:401A80001E030020940000204C02002000803B45B80B000070860000E4020020FF010000748600000024072CDAD90135042DF9D9A149A248FFF758FC002802D0A04801F0D6
:401AC00087FEA0499D48FFF74FFC002814D00021009803F033FE00280ED043461B1225AA414611705370002404E025AB185D01F0DDFD0134012CF8D993499048FFF734FCEE
:401B0000002800D18EE001F0E9F825AC207001F0F9F860708D4D2423EB5CA370A86A04F0EDFC0312E0702371A86804F0E7FC03126071A371686904F0E1FC0312E071237278
:401B4000834B1B681D1C0193181C04F0D7FC0400C6B2281C06F02AFB00227E4B0490059104F036FD06F072FA844208DA0022794B0498059905F0F6FE06F068FAC6B2764993
:401B8000019804F021FA041CB3009B19580004F0D7FC011C201C04F02BFB04F0AFFCC5B26E49019804F010FA0490201C04F0A6FC83001B18580004F0C3FC011C049804F02C
:401BC00017FB04F09BFCC4B26549019804F0FCF90190049804F092FC83001B18580004F0AFFC011C019804F003FB04F087FC25AB5E729D72DC7218735A4A12785A73534A07
:401C00002D21515C99732E21515CD9732C21525C1A74002404E025AB185D01F047FD0134102CF8DD002303E03021444AD1540133072BF9D90021009803F080FD002860D041
:401C4000494B5B7F002B00D1D4E4414AD1680B68464803601269934205D13D4B5A690A609A695B691360394CA06A04F047FC0500A06804F043FC00042818606301F042F8CD
:401C8000050001F053F840002818C5B201F026F88300EB18DBB2424616029E19606904F02DFC000436182A4D286804F027FC00063018A0632D4B1B68EA6A934207D1EA687E
:401CC00069691160AB69214A526B1A6092E4204A126B934208D11E4BDA68596911609B691A4A926B1A6085E4194A526B934200D080E4174BDA68596911609B6942461A60B4
:401D000078E4194B5B7F002B0FD0114AD1680B6816480360926B934207D10D4B5A690A609C69069803F088FD2060002000F0CAFF002000F0DBFF5DE47C860000E402002061
:401D400080860000848600008C86000094010020940000200000E03F000020410000C84200007A4450020020F80200204C020020F8B505000E0014001F00322000F08CFBDA
:401D8000012000F0DBFF012000F0E4FF322000F083FBE2B23B0031002800FEF7E1FB0400002000F0CBFF012000F0D4FF322000F073FB2000F8BDC04684B00390042917D85B
:401DC0008B00224AD3589F4608226B46DA7112E004226B46DA710EE00C226B46DA710AE010226B46DA7106E008226B46DA7102E008226B46DA7100028B00154AD3185B68C4
:401E0000A022D2009A18904203DC124A9A18904204DA8B000E4AD31858600AE0C01A6A4607321278D2B2104118188B00084AD31858608900064B59184B681912DA11012373
:401E40001340CB180293029804B0704794860000E001002000FBFFFF10B58421C90504F0C7F906F0A3F9034A034B04F0DDFE06F0F1F910BDCDCCCCCCCCCCFC3F10B506F02A
:401E800095F9054A054B05F0F3FA0022044B04F09FFB06F0DFF910BDCDCCCCCCCCCCFC3F00004040064B1B68002803D080221206134301E05B005B08014A13607047C046FC
:401EC00080033A4010B5802252010F4B1A6080231B060E4A136003210D4A11608821C9020C4A116004210C4A11600C4A13600C4B0C4A13600C4A136020220C4B1A600120CF
:401F0000FFF7D0FF10BDC04694020C40000030403000304080003040C000304000003A401000400000033A4040033A40000E3F40052830D88000184B1B589F460122174B71
:401F40001A60174A116806230B43136023E00122124B1A60124A116860230B4313601AE001220E4B1A600E4A1368C021C9010B43136010E00122094B1A600A4A1368C0214D
:401F8000C9030B43136006E00422044B1A6002E00822024B1A607047A886000080003040000202400001024005282ED88000174B1B589F460122164B1A60164A1368062123
:401FC0008B43136021E00122114B1A60114A136860218B43136018E001220D4B1A600D4A11680D4B0B4013600FE00122084B1A600A4A11680A4B0B40136006E00422044B21
:402000001A6002E00822024B1A607047C08600008400304000020240FF9FFFFF00010240FFFF9FFF01280DD0002804D002280FD0032814D018E00D4A1368C021C9040B43C3
:40204000136011E0094A116806230B4313600BE0064A1368C021C9020B43136004E0034A116860230B4313607047C0460003024001280CD0002804D002280ED0032812D01D
:4020800016E00C4A11680C4B0B40136010E0094A136806218B4313600AE0064A1168074B0B40136004E0034A136860218B4313607047C04600030240FFFFFFF9FFFFF9FF01
:4020C00010B506F05BFA03680C2B00D1FEE7FEE770B50F4E0F4D13E029686B68AC68002202E001C901C30432A242FAD1E868002202E0002102C304328242FAD11035013E50
:40210000002EE9D106F040FAFFF73EF9FEE7C04601000000388B000010B500230AE0032B03D89A000849505800E008489900084A88500133232BF2D9FDF7C4FF802292050D
:40214000044B1A6010BDC04600000000C12000000000002008ED00E082B0134B0093134B0193134B6A461A601249134A1160C0461B681B0F1B07F0221206934204D10C4B27
:402180001B68FF2018400DE0094B1B681B0F1B07A0221206934204D0054B1B68FF20184000E0002002B07047B6E90000F8010020080010401600008004001040104B114A2F
:4021C0001A601149114A1160C0461B681B0F1B07F0221206934204D1094B1B68FF2018400DE0074B1B681B0F1B07A0221206934204D0034B1B68FF20184000E000207047B8
:4022000008001040B6E80000150000800400104082B0134B0093134B0193134B6A461A601249134A1160C0461B681B0F1B07F0221206934204D10C4B1B68FF2018400DE012
:40224000094B1B681B0F1B07A0221206934204D0054B1B68FF20184000E0002002B07047B6EA0000F801002008001040170000800400104030B5A5B004000023239322933D
:402280003D4B984272D8002970D0802202A806F0B0F93A4B00937F230193394B6A461A603849394A1160C0461B681B0F1B07F0221206934204D1324B1B68FF2213400DE0A3
:4022C0002F4B1B681B0F1B07A0221206934204D02B4B1B68FF22134000E000232393239B002B45D101F0C9FC0500FFF735FF2290229B002B02D1FFF761FF2390239B002BA9
:4023000025D1224A0092009A2404144300941C4A694611601E481C490860C0461268120F1207F02109068A4204D1154B1B68FF2213400BE0124A1268120F1207A0210906A6
:402340008A4203D00E4B1B68FF2213402393229B002B07D1FFF75CFF2290229B002B01D0229B2393280001F08CFC01E004232393239825B030BDC046FF010000B6D700005A
:40238000080010400400008004001040B6D800000500008070B5040001F06FFC0500102C05D8104A136803218B43136016E0202C07D80C490B6803229343023A13430B601C
:4023C0000CE0302C07D807490B6803229343013A13430B6002E0002000F024F8280001F050FC70BD30001040024A1168024B0B401360704700000740FFFFFFBF034B186884
:402400008023DB05184000D001207047000007401F2318401E3B8340014A13607047C04600E100E001BE704770B504000D00132802D90020FFF7F6FF1034A40080239B05E8
:402440009C4664442068256070BDC04670B504000E00032902D90020FFF7E4FF132C02D90020FFF7DFFF03252540ED00063501F004FCA408A400074B9C46644421680323CC
:40248000AB4099430B003100A9401943216001F0F8FB70BD00E400E010B5040006E0084B586801F0E1FB074B9C46644480231B029C42F4D8024B9868604301F0D5FB10BD2B
:4024C000F40000200080FFFF30B583B000F0E0F8002849D001F0D1FB0400244B196889001C2319401831224B1B689B0803221340D940204B1A68204B1340204A4A438020A8
:40250000C00184466244D20B013A5205520D1343A02252031A431000192902D8184A13430CE0184BCB181B781A39174A525C9A18FF2A00D9FF229205030013430D4A136038
:40254000124D2B6801933020FFF724FF104A13688021C9050B4313601420FFF79DFF019B2B60200001F08DFB03B030BD080F0340280003400800074000F800C040420F00E4
:402580000000D43FCDF1FF0FD88600003000104000000740F0B583B0040018280BD01C2809D0202807D0242805D0282803D02C2801D0302849D101F060FB0190FFF71EFF19
:4025C000002803D0FFF710FF012600E00026214A136807218B4313601F4BE3181B78DBB21E4A13601E4A13688B4313601D4803687F22934319001C4BE3181B7813400B43E5
:402600000360322001F030FB182C16D9114F3B680725AB431A0023001C3B9B082B4013433B60322001F020FB3A68AA432300183B9B082C001C4014433C60012E01D1FFF76E
:4026400043FF019801F01DFB02E00020FFF7EAFE03B0F0BD080F0340CDF1FF0F0C0F0340100F0340180F0340B4F1FF0F10B5034B1B7B584301F0F8FA10BDC046F400002025
:40268000024B1868800F80077047C0460C020740034B1B68002B01DA012000E00020704700000740014A024B1A6070476588EDAC3800034010B50400FFF7E2FFA0421AD0F9
:4026C000144A136803218B431360134B1B689B0F01D17C2001E086204000FFF7C7FF01F0CCFA0D4A13689B009B08A40FA4071C43146001F0C6FA074B1B6803229343064A57
:402700001268920F01D1023200E001221343014A136010BD140207400C02074010B5040001F0ABFA054B1C4005490B68054A134023430B600B6801F0A4FA10BD04040400C8
:4027400010020740FBFBFBFF10B5244B1B685B0715D5234B1B685B070ED5224B5969042001401F4C22688A4322605A6982435A619B68002B00D098470420FFF7CFFF174B95
:402780001B685B0518D5164B1B685B0510D5154B59698022D2001140114802688A4302605969114A0A405A61DB68002B00D098478020C000FFF7B2FF084B1B685B030CD5EC
:4027C000074B1B685B0304D5064B1B69002B00D098478020C002FFF7A1FF10BD100207400801002010020020FFFBFFFF0222064B1A6080221206054B1A600022044B1A604F
:402800000132044B1A607047280200200000304004003040080F3040044A1168044B1B680B43802109010B4313607047040030402802002010B5064B1B79002B04D1FFF7C8
:40284000D5FF0122024B1A71FFF7E6FF10BDC0462802002010B5002404E02000FFF7A4FB0134E4B2052CF8D9FF22014B1A7010BD0C01002010B50400054B1878FF2801D0B0
:40288000FFF792FB2000FFF753FB014B1C7010BD0C01002010B501F0F0F9044A136804490B43136001F0EDF910BDC04600000C400010008010B5040001F0DFF9044A136808
:4028C0007F218B430C401C43146001F0DAF910BDC0010C4070B5040001F0CFF9064D2B68064A134019002302C022920013400B432B6001F0C6F970BDC0010C40FFFCFFFF81
:4029000010B5040001F0B9F9044A1168044B0B40A4051C43146001F0B4F910BDC0010C40FFFF3FFC10B501F0A8F9084A1168084B0B40136001F0A5F97F20FFF7BBFF00206C
:40294000FFF7C8FF0E20FFF7DBFF10BDC0010C407FFFD0FF10B5064B1B68002B04D1FFF7E1FF0122024B1A60FFF794FF10BDC0463002002010B503211320FFF767FD3F4970
:402980001320FFF751FD03223D4B1A603D4B1B68002B01DA3C4900E03C493D4A13680B4313603C4A3C4B1A603C4A3D4B1A6000233C4A13603C4A3D490A603D490A603D4AA3
:4029C00013603D4A136001223C4B1A603C4A11683C4B0B40802189050B43136000224AE0394891000C58DC239B0123408018007A03433648844661440B60E30707D52D48DA
:402A00000168012393401B041B0C0B43036093002D495B589B0707D527480168012393401B041B0C0B430360930027495B58990502D58021C90001E080214901DB0506D424
:402A40004B085B421BB25000214C035303E0480853001F4C18531F4B4B43802109018C466344D9170905090DCB181B131BB29000194943500132012AB2D910BD792C00003C
:402A800020003A4080033A40502E1010502E001000003A40F500008004003A400000FF0718003A401C003A400400040010003A4014003A4028023A4038023A4018023A40AC
:402AC00030003A40FEFFFFDFF086000080003A40E003002010270000D803002010B5094B1B68002B0CDB084B1B68002BFBDB054A1368802109060B4313600A20FFF7B6FD19
:402B000010BDC04600003A4008023A4010B5064B1B78002B04D1FFF72DFF0122024B1A70FFF7DCFF10BDC04634020020034A1368802149020B4313607047C04604003A4055
:402B4000020083070CD0074B1B680120184001D19307F8D4002804D00122024B1A6000E00020704710023A4010B50400012802D90020FFF757FC012C07D8A400044B9C4627
:402B8000644420680004000C00E0002000B210BD80013A4070B504000D00012802D90020FFF740FC63000F4A995A09B2691A09B20D484843002906DDA3000C4A9A58D30F6E
:402BC0009A18531006E0A300084A9A58D30F9A18521053421818A400044BE15802F078FC00B270BDE003002010270000D803002070B505000C00012802D90020FFF712FC34
:402C00006A00084BD05A00B2201A00B2C117064A002302F0E5FDAD00044BEA58D31702F0BBFD70BDE003002080969800D803002070B504000D00012802D90020FFF7F2FB08
:402C400062000A4BD05A00B2281A00B203F078FC074903F0B9F9051CA400064BE05803F06FFC011C281C02F0E5FF70BDE003002000002041D8030020014B1A681A60704703
:402C800010023A4010B5002404E02000FFF7F0F90134E4B2032CF8D9FF22014B1A7010BD0D01002010B50400054B1878FF2801D0FFF7DEF92000FFF7B5F9014B1C7010BD28
:402CC0000D010020044A1368DBB201218B430840184310607047C04600000440024B1B68012018407047C0460400044004490A68D2B204239A43800018401043086070476D
:402D000000000440024B186880080123184070470400044004490A687F231A40C301D8B2104308607047C04600000440024B1868C0090123184070470400044004490A68EA
:402D4000D2B208239A43C00018401043086070470000044004490A68D2B202239A43400018401043086070470000044004490A68D2B202239A434000184010430860704717
:402D800000010440024B186840080123184070470401044004490A68D2B204239A438000184010430860704700010440024B186880080123184070470401044010B50A00C7
:402DC000C117002302F00CFD00290BDA002342428B411B02120E1A431000D117002342428B4103E00B02000E18430200100010BD70B58AB005AC1F4B2200190070C970C2FF
:402E000030C930C201AA143332CB32C21B681360194B984217D945010020042408E0A20005ABD358C0182900FFF7C8FF013CE4B2002CF4D1114B9C466044C2175205C30A4C
:402E40001A43100014E045010020032408E0A20001ABD358C0182900FFF7B0FF013CE4B2002CF4D1064BC318D8174005DB0A18430AB070BDFC860000A086010071E0FFFC1D
:402E8000E5780BFD10B50A00C117002302F0A8FC00290BDA002342428B411B02120E1A431000D117002342428B4103E00B02000E18430200100010BD30B587B003AC1B4A5F
:402EC000130026CB26C46A4632CB32C2184B984215D985000020022408E0A20003ABD358C0182900FFF7CEFF013CE4B2002CF4D1104BC318D8174005DB0A184314E085003F
:402F00000020022408E0A3006A469B58C0182900FFF7B8FF013CE4B2002CF4D1064BC318D8174005DB0A184307B030BD2087000040420F008ABF03FD605B00FD10B50A005F
:402F4000C117002302F04CFC00290BDA002342428B411B02120E1A431000D117002342428B4103E00B02000E18430200100010BD30B587B003AC1B4A130026CB26C46A4690
:402F800032CB32C2184B984215D985000020022408E0A20003ABD358C0182900FFF7CEFF013CE4B2002CF4D1104BC318D8174005DB0A184314E085000020022408E0A3004B
:402FC0006A469B58C0182900FFF7B8FF013CE4B2002CF4D1064BC318D8174005DB0A184307B030BD3887000040420F004125F0FCD49DECFC10B50A00C117D31702F0F0FB0F
:4030000000290BDA002342428B411B02120E1A431000D117002342428B4103E00B02000E18430200100010BD30B599B0050060223349684605F0DDFA002D1CDA03DA6D4278
:40304000ED026D4200E0ED02072400200AE063001B199A006B46D358C0182900FFF7CAFF013CE4B2002CF2D1264BC318D81780059B0A184341E0244B9D421FDC002D03DAEB
:403080006D422D026D4200E02D02072400200AE06200121993006B445B68C0182900FFF7A9FF013CE4B2002CF2D1184B9C466044C217D205430A1A4310001EE0002D03DAF1
:4030C0006D422D026D4200E02D02072400200AE06200121993006B449B68C0182900FFF789FF013CE4B2002CF2D1094B9C466044C217120703091A43100019B030BDC046EB
:4031000050870000F51A0000A7A70000840B0000C7E2B4FF30B589B06A46124B603332CB32C232CB32C212CB12C2002803DA40424002454200E045020020072408E0A300D2
:403140006A469B58C0182900FFF754FF013CE4B2002CF4D10138C317DB064009184309B030BDC0465087000010B50A00C117D31702F036FB00290BDA002342428B411B0231
:40318000120E1A431000D117002342428B4103E00B02000E18430200100010BD30B59FB0050078223149684605F023FA002D1BDA03DA6D42ED026D4200E0ED02092400207A
:4031C0000AE063001B199A006B46D358C0182900FFF7CAFF013CE4B2002CF2D1C3175B06C209134318003EE0214B9D421CDC002D03DA6D426D026D4200E06D02092400200E
:403200000AE06200121993006B445B68C0182900FFF7AAFF013CE4B2002CF2D1C217D20743081A4310001EE0002D03DA6D422D026D4200E02D02092400200AE062001219DE
:4032400093006B449B68C0182900FFF78DFF013CE4B2002CF2D1074B9C466044C2175206C3091A4310001FB030BDC046D0870000A4500000B641E6FF30B58BB001A90A00C5
:40328000114B783332CB32C232CB32C232CB32C2002803DA45426D026D4200E045020020082408E0A20001ABD358C0182900FFF75BFF013CE4B2002CF4D1C317DB0640099D
:4032C00018430BB030BDC046D087000010B50A00C117D31702F084FA00290BDA002342428B411B02120E1A431000D117002342428B4103E00B02000E18430200100010BDAF
:4033000030B599B0050060223149684605F071F9304B9D421FDA002D03DA6D426D036D4200E06D03072400200AE063001B199A006B46D358C0182900FFF7C8FF013CE4B203
:40334000002CF2D1244B9C466044C2175207C3081A43100039E0002D1BDC03DA6D42ED026D4200E0ED02072400200AE06200121993006B445B68C0182900FFF7A7FF013C28
:40338000E4B2002CF2D1C317DB05420A134318001BE0002D03DA6D426D026D4200E06D02072400200AE06200121993006B449B68C0182900FFF78AFF013CE4B2002CF2D1AA
:4033C000C2179205830A1A43100019B030BDC0466C8800001DEAFFFFF7FC280730B58BB001A90A00114B603332CB32C232CB32C232CB32C2002803DA45426D026D4200E06C
:4034000045020020082408E0A20001ABD358C0182900FFF75BFF013CE4B2002CF4D10530C317DB06400918430BB030BD6C88000010B50A00C117D31702F0D2F900290BDAF7
:40344000002342428B411B02120E1A431000D117002342428B4103E00B02000E18430200100010BD30B59FB0050078223149684605F0BFF8304B9D421FDA002D03DA6D42E9
:403480002D036D4200E02D03092400200AE063001B199A006B46D358C0182900FFF7C8FF013CE4B2002CF2D1244B9C466044C217D20643091A4310003AE0002D1BDC03DADF
:4034C0006D42AD026D4200E0AD02092400200AE06200121993006B445B68C0182900FFF7A7FF013CE4B2002CF2D1C317DB064209134318001CE0002D03DA6D42ED016D4242
:4035000000E0ED01092400200AE06200121993006B449B68C0182900FFF78AFF013CE4B2002CF2D15938C217120703091A4310001FB030BDF088000087DDFFFFD9F75105BA
:4035400030B58BB001A90A00114B783332CB32C232CB32C232CB32C2002803DA45426D026D4200E045020020082408E0A20001ABD358C0182900FFF75BFF013CE4B2002CCF
:40358000F4D1C317DB06400918430BB030BDC046F0880000F8B504F0D1FD00F075FB04F059FE04F003FE04000D001B4A1B4B03F05FFF1B4A1B4B03F00BF806000F0000228D
:4035C000194B2000290000F0E7FB184A184B03F04FFF02000B003000390002F0F9FF04F039FE04F0E3FD02000B000020114903F01BFB114A114B04F0B5F90022104B03F08E
:4036000037FF00220F4B02F0E3FF04F023FE02F075FF00B2F8BDC0460B9676632B332F3F129C4E4080FD513F00000840B0A237F626E0753E0000F03F66666666661271401D
:40364000000059400000E03F10B500F091F810BD10B500F039F810BD10B5044A1368802109060B431360FFF7EFFF10BD0000094010B5064B1B78002B04D1FFF7E9FF012231
:40368000024B1A70FFF7E8FF10BDC04636020020014B18687047C04640030940024B1B681F2018407047C04608030940044B1B681F221340082BF9D0024B18607047C046BA
:4036C0000802094040020940154A164B1A600023154A13601549164A1160164A16490A6007201649086016490B6006381549086015490A60154A1360042215490A601549C3
:403700000B6015490B6015490B6015490B6015490A60154A13601268144B1A807047C0460B000002000009404000094001000A00480009400700008000030940040309405B
:403740001003094044000940000209400402094050000940880E0940C80E0940480F0940080F0940C80F0940880F094038020020064A1168064B0B40902109040B431360F1
:40378000044B1A88044B1A607047C04600000240FFFF0FFF38020020880F094010B5FFF77DFF002802D0FFF773FF01E0064B1868064A1368D821890011601B02D822920256
:4037C0001340184310BDC04640030940C00F094070B50500002402E0FFF768FF0134285D0028F9D170BDC04610B500F046FA044A136801218B43136000F043FA10BDC04617
:40380000000006400004000C014B18607047C046080106400004000C014B18607047C046140106400004000C014B18607047C0460C01064070B504000D0000F01EFAAC4068
:40384000024B1C6000F01DFA70BDC0460800064010B500F012FA064A116801230B43136000F00FFA18210120FFF7E4FF10BDC04600000640014B18607047C0463801064043
:4038800010B5802252020A4B1A600C22094B1A600120FFF7EFFFFA24A4002000FFF7BAFF2000FFF7BFFF2000FFF7ACFF10BDC046000106402401064010B5064B1B78002BFE
:4038C00004D1FFF7DDFF0122024B1A70FFF7C0FF10BDC0463A020020014B18687047C04630010640014B18607047C04630010640014B1860596070473C020020F0B5574677
:403900004E464546E0B480460E00030B03221A40FA2080000100514343461B0A0F200340642463435A1843461B0903409900CB185B009B1842460240994691440024002543
:403940005F4F1FE0BB0705D16421380001F0BCFD002908D1C8214900380001F0B5FD002903D1012302E0012300E00023002B04D0544A0023A4185D4103E0534A0023A418E9
:403980005D4101374F45DDD343461B0F012213409A00D3185B004246120E0F271740DF197B1E5B00494A9B5A9A464B469B0705D16421484601F088FD002908D1C821490095
:4039C000484601F081FD002903D1012302E0012300E00023002B04D0022F02D901239C46E2443B4A00235046002101F0F9FE24184D4143461B0D03273B409800C3185B0034
:403A00004246100C0F22904610401818304A0023002101F0E5FE2F4A01235B428018594124184D41300D0740B800C7197F00300C43461840381880231B04334000D0012362
:403A4000002B13D08023DB0332001A409A4201D1012300E00023002B03D00B2801D80C3004E0002B02D10C2800D10020E12212010023002101F0B4FE24184D41330B0722DB
:403A8000904613409800C3185B00300A0F27384018183C220023002101F0A2FE001969413309424613409A00D3185B003E409C190025001969411CBC90469946A246F0BDCD
:403AC000B20700000085E2018033E1018C8900008051010080AEFEFFF0B583B001900E000B0D032423409A00D31858000F0C0F231F40C7190A0F01210A4091008A18510073
:403B0000300E18400D18320B1440FA22920062431000340A1C4064210A006243841832091A4091008A18510064183340E41801993000FFF7E3FE164B18605960154B5E6017
:403B4000019A1A60022D01D80C35013C681C1A2358430A2101F032FCC7193F19A308FF186421200001F02AFC430018184300FF18C8214900200001F021FC3818072101F0B8
:403B8000A3FC002900D10731024B996003B0F0BD08040020EC03002010B50122074B1A700023074AD360074AD360074A1370074A136007490748FFF78FFF10BDE8030020D1
:403BC0003C020020EC03002000040020FC030020182026063555230010B5034B1B78002B01D1FFF7D9FF10BDE8030020024B1868800901231840704704000440014B186620
:403C00007047C0460000002010B5040000F035F8044A1368C0218B43A4011C43146000F030F810BD08E400E080225200014B1A607047C04600E100E080225200014B1A602E
:403C40007047C04680E100E010B50400FFF7F4FF2000FFF7D3FF0320FFF7D6FFFFF7E4FF10BDC046000000000230800803D001300238FCD1C046C0467047EFF3108072B6F0
:403C8000704780F310887047F0B5474680B48CB004000D0000F03CFA3A4B06001B780F005BB2984601330FD022002B002000290004F0ACF9002807D10022002320002900CA
:403CC00001F01CFD002805D0300039000CB004BC9046F0BD2C4B0A90039343460494059506940795002B1AD1E022284B120608920993200000220023290001F0E5FC00285C
:403D000038D00223029302A801F03EFA002817D00A9B0193002B18D1089E099FD4E700221B4B20000892099329000022002301F0CBFC00280FD0022302934346022BE2D15B
:403D400004F01CFC22230360E2E704F017FC0A9B01930360E0E7012302934346022B0BD104F00CFC212303600A4801F00FFA08900991CDE70123029302A801F005FA0028C1
:403D8000F2D1EDE70E010020B0890000FFFFEFC70000F0FFB4890000F0B55F464D4656464446F0B491B01F0004000D00160000F0B1FBCF4B029003919B461B785BB29946BA
:403DC00001334FD032003B003000390004F01EF90090002846D122002B002000290004F015F900228246002834D100232000290001F06AFC00283AD000220023300039006E
:403E000001F062FC0590002800D174E006AB9846012342460693B74B5360434652469C60DD601A621E615F614246002300249361D4614B46002B00D194E00023AE4C00930A
:403E400001940098019911B03CBC90469946A246AB46F0BD00233000390001F035FC002800D0EBE0029B039C00930194E9E70298039901F07FF98146002800D186E0029883
:403E800003990022002301F01FFC0028EAD02000290001F06FF9029A039B009201930028CFD03000390001F065F9029A039B009201930028C5D006AB9846042342460693BE
:403EC0008C4B9460D560536000230024136200239361D4615B461B78166157615BB2022B04D0404601F050F9002840D104F046FB222303603BE03000390001F03BF9029A7B
:403F0000039B0092019300289BD0002200233000390001F0DFFB002800D192E706AB9846012342460693734B53604346059A9C60DD601A621E615F615B461B785BB2002B72
:403F40000BD0002042466D499061D161022B09D104F014FB2123036009E04246002300249361D461404601F00FF90028F0D043461B6A002B04D004F001FB43461B6A03607E
:403F80004346DC699B69009301945AE72000290001F0F0F8002800D171E73000390001F0E9F8002800D16AE7029803990B00020004F02CF806AB984600287AD103234246C3
:403FC00006934C4B106253605B461B789460D5605BB2166157619946002B48D1E0224146474B12068A61CB61200000220023290001F070FB002800D173E70022414B30004B
:40400000390003F035FA04000D0001F0C5F802000B002000290001F057FB002805D1E022394B120641468A61CB615B461B785BB299464B46022B00D053E757E706AB9846DE
:404040000123424606932B4B536043469C60DD600024009A284D1A621E615F619C61DD614B4600940195022B00D07BE7E9E600224146264B20008A61CB610022002329003F
:4040800001F028FB0028D4D000221E4B3000390003F0EEF904000D0001F07EF802000B002000290001F010FB0028BED10022134BB8E70123424606930E4B536043464A4648
:4040C0009C60DD601A621E615F6100245B461C57002C00D141E7002300221900100002F0A3FD43469861D961022C00D130E739E70E010020B88900000000F03F0000F0FFEF
:40410000FFFFEF470000E03FFFFFEFC70000F07FF0B557464E464546E0B4DA4A88B00B00914255DC4A005208024300D1EFE0002900DA79E1D44B002203F09AF93625D34C82
:404140000B006D42A34247DC1A151B031B0B9846CF4C8023A446CF4C5B0344442340CE4C624452195C4045461B1599462543CA4B29009144002203F0F5FB434602331B0363
:4041800006000F001B0B0022022B2FDC002301F09BFA002800D1C1E04B46002B00D14CE1484603F089FFBD4ABD4B04000D0003F05FF9BC4A06000F00BB4B2000290003F09C
:4041C00057F902000B003000390002F001FA07E0AE4C0025A342B7DD02000B0002F0F8F908B01CBC90469946A246F0BD8023DB0502F0EEF902000B003000390002F014FDEE
:40420000040048460D0003F057FF2200029003912B00200029000494059503F029F904000D00A24B020043449A460B000094019503F01EF904000D009D4A9E4B03F018F908
:404240009D4A9E4B02F0C4F922002B0003F010F99B4A9C4B02F0BCF922002B0003F008F9994A9A4B02F0B4F9009A019B03F000F9974A00900191974B2000290003F0F8F828
:40428000954A964B02F0A4F922002B0003F0F0F8934A944B02F09CF922002B0003F0E8F80B0002000098019902F092F90D0041468D4B04005B1A51460B43002B54DD002220
:4042C0008A4B3000390003F0D3F832003B0003F0CFF84B460A00010000910192002B72D1130029000200200002F072F9049A059B03F0BEF802000B000098019903F032FB6C
:4043000002000B003000390003F02CFB68E7002200230020764902F087FC61E7754A764B3000390003F0A4F802000B0000206F4903F018FB320004000D003B003000390073
:4043400003F096F80B0002002900200003F090F84B4604000D00002B72D102000B003000390003F0FFFA3BE74B46002B00D1C5E002980399494A4A4B03F07AF822000090B0
:4043800001912B003000390003F0ECFA049A059B03F06EF8434A04000D0002980399424B03F066F802000B002000290003F0DAFA32003B0003F0D6FA02000B000098019929
:4043C00003F0D0FA0CE7354A354B0298039903F04FF8009A019B069007912000290002F0F7F8049A059B03F043F82E4A04000D00029803992C4B03F03BF802000B0020001B
:40440000290002F0E5F802000B000098019903F0A9FA32003B0003F0A5FA02000B000698079903F09FFADBE602000B0003F09AFA0022002302F0F8FBD2E600200021CFE6AC
:40444000484603F039FE154A154B0090019103F00FF8144A0290039100980199124B03F007F802000B002000290003F07BFA32003B0003F077FA02000B000298039903F0DF
:4044800071FAADE6FFFF0F0000005043FFFFEF7F01FCFFFF645F09000000F03F0000E0FE422EE63F763C7935EF39EA3D86EBF9FF44523EDF12F1C23FDE03CB966446C73FC8
:4044C000599322942449D23F935555555555E53F9FC678D0099AC33FAF788E1DC571CC3F04FA97999999D93F51B806000000E03F000050C3555555555555D53F22002B00BF
:404500003000390003F02EFA049A059B02F0B0FFF6E6C046F0B556464D4644465F46F0B41C001300670091B07F080093019406000D0080468946A2463B4332D06E4B6C00D4
:4045400064089C4229DC26D09F4226DC6A4B9F4200D189E000239B464B46002B00DA87E0002A2FD1644B9F4200D19FE0634B9F425DD08023DB059A4501D100F0C1FB604BF1
:404580009A451FD14B46002B1CDB3000290000F0F7FC060007E000280DD05A4BE01830430BD100265549300011B03CBC90469946A246AB46F0BDA742C8DD534800F0E6FD7B
:4045C0000600F0E73000290000F0D0FD4346002B1DD0EB0F013B98465B464246134379D04A4B9F4200DC9FE0494B9F4201DC00F0CEFB484B9C4279DD5346002B79DD464AFE
:40460000464B1000190002F033FF0600CBE7002C04D03A4AAB009B089342DAD15346002B00DAADE34B46002B0DDB0600BBE753462900002BB7DA32002B0000202F4902F0B3
:40464000F3FA0600AFE72F4B9C465B4664441C4301D100F02BFC5B460600012BA3D180231B069C4661449EE7002A00D172E794E72B4B9F422BDC274B9F4200DC70E7294988
:404680003B158C466344142B01DC00F0F2FB3421CB1A0099D94008009840824200D05FE70123194001335B1A9B4659E7154BE018064300D175E7174B9C4200DC51E3534694
:4046C000002B16DB009B019C1E0021006BE702239B4645E732002B003000290003F042F902000B0002F0A0FA06005CE75346002B85DB0026002156E70000F07F0000F03F97
:404700000000E03F000010C0B48900000000E0410000F043FFFFEF3F9C7500883CE4377EFFFF3F4301FCFFFFE84B00229C4206DC0022E74B02F09CFE35220C005242E54DC6
:404740002315AC46634499462403E34DE34B240B914425439C4209DDE14B9C4200DCA9E301239C46DF4BE1449C466544002300240022089309940C930D940024D64B0692C4
:404780000793069A079B29000A900B9103F0EAF8069A079B06000F000A980B9901F018FF02000B000020CC4902F03EFA0A00010013000E910F9202003900300002F058FEC7
:4047C0000A0001008020049105921300002280210003844602920393002289056D100D4365442B190298039914001D0002F040FE02000B003000390003F0B4F8069A079BBD
:4048000006000F002000290003F0ACF802000B000A980B9903F0A6F8029A039B02F028FE02000B003000390003F09CF80E9A0F9B02F01EFE049D059E069007912A00330021
:404840002800310002F014FE06000F00A64AA74B02F00EFEA64AA74B01F0BAFE32003B0002F006FEA44AA54B01F0B2FE32003B0002F0FEFDA24AA34B01F0AAFE32003B003F
:4048800002F0F6FDA04AA14B01F0A2FE32003B0002F0EEFD9E4A9F4B01F09AFE320004000D003B003000390002F0E2FD02000B002000290002F0DCFD029E039F04000D00DB
:4048C0000498059932003B0001F082FE069A079B02F0CEFD22002B0001F07AFE32000A900B913B00300039000296039702F0C0FD0022894B04000D0001F06AFE0A9A0B9B54
:4049000001F066FE00260F0032000B000298039902F0AEFD0022029003917F4B3000390003F020F822002B0003F01CF802000B000A980B9903F016F8049A059B02F098FDEA
:40494000320004000D00069807993B0002F090FD02000B002000290001F03AFE04000D0002000B000298039901F032FE0026E0226A4B120630000F0002F07AFD029A039B31
:40498000049005913000390002F0ECFF02000B002000290002F0E6FF614A604B02F068FD604A04000D00604B3000390002F060FD02000B002000290001F00AFE0C9A0D9BF2
:4049C00001F006FE060048460F0003F075FB04000D000498059932003B0001F0F9FD089A099B01F0F5FD22002B0001F0F1FD002022002B000290039102F0B4FF089A099B4A
:404A000002F0B0FF049A059B02F0ACFF02000B003000390002F0A6FF049005915B464246013B134300D197E100232B4C069307940098019900260B0032000F0002F092FFCA
:404A4000029A039B02F014FD009A019B04000D000498059902F00CFD02000B002000290001F0B6FD04000D00029803993B0032000494059502F0FCFC009001910B00020084
:404A80002900200001F0A4FD284B81460F008A46994200DC3CE1264BCB18034300D0DBE104980599234A244B01F092FD009A019B04000D004846390002F054FF02000B0012
:404AC0002000290000F01AFE3E0037E0FFFF0F000000404301FCFFFF0000F03F8E98030079B60B000000F0FFEF4E454A287ECA3F65DBC9934A86CD3F01411DA96074D13F25
:404B00004D268F515555D53FFFAB6FDBB66DDB3F033333333333E33F0000084009C7EE3FFD033ADCF5015B14E02F3EBEFFFF8F40000070BFFE822B654715973C002800D011
:404B40008AE18022E74B52039C461300361566443341E549DB195E001C001B038C461B0B13431422760DE14F66443741961B334198465346BC4300202100002B00DAA9E1C5
:404B800002000B000098019902F0ECFE0B000090019102000498059901F01AFD43461B05994600200022D24B06000F0002F060FC009A019B029003913000390002F0D2FE98
:404BC00002000B000498059902F0CCFEC94ACA4B02F04EFCC94A04000D00C94B3000390002F046FC02000B002000290001F0F0FC04000D0002000B000298039901F0E8FC1D
:404C0000029A039B06000F0002F0ACFE02000B002000290002F0A6FE3200009001913B003000390002F024FC04000D00B54AB64B02F01EFCB54AB64B02F094FE22002B00A5
:404C400002F016FCB34AB44B01F0C2FC22002B0002F00EFCB14AB24B02F084FE22002B0002F006FCAF4AB04B01F0B2FC22002B0002F0FEFB02000B003000390002F072FEEC
:404C800004000D0002000B003000390002F0F0FB8023029003910022DB052000290002F061FE02000B000298039901F0BDFF009A019B04000D003000390002F0D9FB009A2B
:404CC000019B01F085FC02000B002000290002F049FE32003B0002F045FE02000B000020924902F03FFE4B465B181A15002A00DCF4E01900069A079B02F0BAFB060052E4F3
:404D0000320030002B00290002F0B2FB06004AE4874B4E0076089E4200DCBFE0854BCB1803430CD1009A019B02F01CFE02000B000498059900F0D8FC002800D101E706984F
:404D400007997D4A7D4B02F093FB7B4A7B4B02F08FFB0600FFF727FC0023794C0693079466E65346002B00DBC3E4009B019C802212061E009446230063441900FFF713FCDE
:404D800002000B000020694901F04EFF4AE46D4B9C4200DCAAE4654B9C4201DDFFF72CFC0022624B02F0DEFDC022674BD20504000D0002F05DFB654A06000F00644B200029
:404DC000290002F055FB002202900391614B2000290002F04DFB02000B005F485F4902F0C1FD22002B0002F043FB02000B0000205B4902F0B7FD2200049005912B0020003A
:404E0000290002F035FB02000B000498059902F02FFB544A4C4B02F02BFB02000B000298039902F09FFD02000B0004000D003000390001F0CDFB002210003B003200029035
:404E4000039102F08FFD02000B002000290002F089FD04900591E1E5434A444B0698079902F006FB404A414B02F002FB0600FFF79AFB002A01D0FFF7A5FB1432D31A3A0081
:404E80001A41110099408F4201D0FFF76FFB012313400222D31A9B46FFF768FB304B9E4200DD4EE60023994698467AE602000B00FFF714FC80232E4CDB05089309942D4B7D
:404EC0002D4C00220C930D9480242C4BE4020692079356E443465B42984651E6424600F0FDF907E702FCFFFF01FCFFFFFFFF0F00432EE63FEF39FAFE422EE63F396CA80C2B
:404F0000615C20BED0A4BE726937663EF16BD2C541BDBB3E2CDE25AF6A56113F93BDBE166CC1663F3E5555555555C53F0000F03FFFCB904000346F3F59F3F8C21F6EA50151
:404F40000000F0BFFEFFEF3F4715F73F44DF5DF80BAE543E0000D03F555555555555D53F0000E03FFE822B659C7500883CE4377E03B8E23F06D0CF43EBFD4C3E0000F83FD7
:404F8000F0B556464D4644465F46754BF0B40A000D00190083B0060004002940994200D1BAE0002D00DC94E02D1500D1A3E06D4B12039C468023120B5B0365441A43EB0796
:404FC00000D581E06B109846E30F9B189B18802216210026002764009203B818984202DC87181B1AB618E00F5B0001391B18640052080029F1D100220192944680221206D8
:405000002020914609E09F4241D0E10FC9180138CB186400520800281ED0614651189F42F1DA8D18AC46CD0FED07BA464D4539D0DB1B8C42BF417F42DB1B641A0199013833
:405040008B46934459460191E10FC9185746CB18640052080028E0D123432BD1019B5B08414972108C466244F10702D5802109060B43414609058D181E002F0030003900CD
:4050800003B03CBC90469946A246AB46F0BDA1420ED88D18AC46CD0FED074D4548D09A460023CAE76546002DC2DB7D1CAA46BFE73B00AAE7019B01333ED0019A0123944695
:4050C000134063445B08CBE7E30F52009A18640078E76B005B0803432F00002BCED00025002A31D1E20A153D6405002AFAD080235B031A4223D180200023400300E00B00AE
:405100005200591C0242FAD02020401AED1A2300C3408C401A434AE702002B00290002F0A7F932002B0001F053FA06000F00A5E76546002DB9DAB2E70136002390E701235C
:4051400020205B420021E1E73B000200390002F009FC02000B0001F067FD06000F008DE70000F07F01FCFFFF0000E03F49004B0819007047034B48009C4640086044C00FE9
:405180007047C0460000108000207047002001497047C0460000F87FF0B5474680B4CB0F98464A4C4B005B0D1E1982B007000A00132E35DC002E57DB454B040033411F0073
:4051C0000F4007430D00002F24D05B081C000C4020430027002807D0132E00D172E08022D202324199430A434346DE00394B11009E1934687568380022002B0001F0E8F999
:40520000009001910098019922002B0002F0AAFB04000D002000290002B004BC9046F0BD332E0CDD80230400DB000D009E42F1D102000B0001F0CCF904000D00EAE7264C55
:405240000D00A446012463446442DC40A446614604000142DED049080142C5D08027FF051F4188430743BFE74B005B08034304000D00002BCED00B031B0B03435A421343FA
:4052800080221B0B120313404A0C5204134319004346104ADB00D3181C685D6822002B0001F096F9009001910098019922002B0002F058FB42464B005B08D6073343040071
:4052C0001D00A7E780273F0689E7C04601FCFFFFFFFF0F00C0890000EDFBFFFF4B0070B55B0D14000A00002B1AD14B005B08034315D00022224B02F0BBF8224B0A009C42FC
:4053000022DB4B005B0D363B1F4DE318AB4220DC002B0DDD1D4C1B0522401A43110070BD1B4DAB42F0D102000B0001F051F9F6E71D00353518DA174B02009C420ADC0B007A
:405340001548164900F032F8134A144B02F090F8E5E702000B001248124900F027F8104A104B02F085F8DAE7084C363322401B051343190000220C4B02F07AF8CFE7C04658
:4053800000005043B03CFFFFFE070000FFFF0F80FF07000050C3000059F3F8C21F6EA5019C7500883CE4377E0000903C30B54A00DB0FDB0752081A43110030BD0022430835
:4053C0008B4274D303098B425FD3030A8B4244D3030B8B4228D3030C8B420DD3FF22090212BA030C8B4202D31212090265D0030B8B4219D300E0090AC30B8B4201D3CB0307
:40540000C01A5241830B8B4201D38B03C01A5241430B8B4201D34B03C01A5241030B8B4201D30B03C01A5241C30A8B4201D3CB02C01A5241830A8B4201D38B02C01A524131
:40544000430A8B4201D34B02C01A5241030A8B4201D30B02C01A5241CDD2C3098B4201D3CB01C01A524183098B4201D38B01C01A524143098B4201D34B01C01A524103093F
:405480008B4201D30B01C01A5241C3088B4201D3CB00C01A524183088B4201D38B00C01A524143088B4201D34B00C01A5241411A00D20146524110467047FFE701B5002096
:4054C00000F0F0F802BDC0460029F7D076E7704703460B437FD4002243088B4274D303098B425FD3030A8B4244D3030B8B4228D3030C8B420DD3FF22090212BA030C8B423E
:4055000002D31212090265D0030B8B4219D300E0090AC30B8B4201D3CB03C01A5241830B8B4201D38B03C01A5241430B8B4201D34B03C01A5241030B8B4201D30B03C01A63
:405540005241C30A8B4201D3CB02C01A5241830A8B4201D38B02C01A5241430A8B4201D34B02C01A5241030A8B4201D30B02C01A5241CDD2C3098B4201D3CB01C01A5241B3
:4055800083098B4201D38B01C01A524143098B4201D34B01C01A524103098B4201D30B01C01A5241C3088B4201D3CB00C01A524183088B4201D38B00C01A524143088B4219
:4055C00001D34B00C01A5241411A00D201465241104670475DE0CA0F00D04942031000D34042534000229C4603098B422DD3030A8B4212D3FC22890112BA030A8B420CD3D6
:40560000890192118B4208D3890192118B4204D389013AD0921100E08909C3098B4201D3CB01C01A524183098B4201D38B01C01A524143098B4201D34B01C01A524103099D
:405640008B4201D30B01C01A5241C3088B4201D3CB00C01A524183088B4201D38B00C01A5241D9D243088B4201D34B00C01A5241411A00D20146634652415B10104601D3B4
:405680004042002B00D54942704763465B1000D3404201B5002000F005F802BD0029F8D016E770477047C0468446101C62468C46191C634600E0C0461FB501F06FFE00284B
:4056C00001D40021C8421FBD10B501F0C3FD4042013010BD10B501F061FE002801DB002010BD012010BDC04610B501F057FE002801DD002010BD012010BDC04610B501F036
:40570000E9FD002801DC002010BD012010BDC04610B501F0DFFD002801DA002010BD012010BDC0468446081C6146FFE71FB500F007FC002801D40021C8421FBD10B500F02C
:4057400093FB4042013010BD10B500F0F9FB002801DB002010BD012010BDC04610B500F0EFFB002801DD002010BD012010BDC04610B500F0A1FB002801DC002010BD0120A3
:4057800010BDC04610B500F097FB002801DA002010BD012010BDC046002B15D1002A13D1002906DB01DC002806D00020C043410802E080210906002007B4024801A14018CA
:4057C000029003BDE1FEFFFF03B4684601B5029800F09EF8019B9E4602B00CBC7047C046F0B54F464646C0B41604360C9946330005042C0C070C150C63437E436F436543AA
:405800001C0CAD1964199C46A64203D980235B02984647446346250CEF191D044B464A4343432D0C240464199918C91920000CBC90469946F0BDC0469E2110B5C905041C14
:40584000FFF7A0FF002803D1201C00F057FE10BD9E21201CC90500F0CBFC00F04FFE80231B069C466044F2E770B500220C4B04000D00FFF74DFF002804D12000290002F040
:40588000E5FB70BD064B00222000290002F06AF802F0DCFB80231B069C466044F1E7C0460000E04110B50021041CFFF74DFF002803D1201C00F00CF810BD80231B06E018BC
:4058C00000F006F802000B00002150429941F3E770B502F06BFC00220B4B0D00040001F0C7FDFFF7C1FF060002F028FC0022074B01F0BEFD02000B002000290002F032F826
:40590000FFF7B2FF310070BD0000F03D0000F041F0B583B016001F000090019102F050FD04000D0002000B0030003900FFF758FF009A019B121A8B41089920000A604B60BE
:40594000290003B0F0BDC046F8B54A02430244004E00C50F240E28009B09360EC90F92098D4259D0A01B002800DC8DE0002E1AD1002A00D079E05A0704D00F221A40042AC1
:4059800000D004335A0138D50134FF2C00D189E028009B015B0AE4B25B02E4055B0A2343C0071843F8BDFF2CE5D08021C9040A431B2800DD89E016002021C640081A8240D2
:4059C000511E8A4132439B1A5A0114D59B019E09300002F0CBFC05388640844265DC041B330020200134E340041BA640721E964100243343BFE75A07BFD1DF082800FF2C08
:405A00002FD1002F00D187E08022D20313003B435B025B0AFF24BFE7A11B002949DD002E29D0FF2CA7D08026F60432431B2900DD8DE017002026CF40711A8A40511E8A41FA
:405A40003A439B185A01D6D50134FF2C64D0012276491A405B080B4013438CE7031ECAD100207B025B0AE4B296E701380028AAD0FF2C9DD17FE7002A00D17CE7013900293D
:405A8000DFD0FF2CD2D176E7002820D1601CC0B2012853DD80279E1AFF0437402FD0D61A0D0095E72800002376E7614B241A334061E700294DD1611CCEB2012E2FDDFF2967
:405AC0002AD09B185B080C0055E701227BE7002C1BD1002B5BD0C04300280CD0FF2E7ED01B2800DD92E01D002024C540201A8340581E83412B43D31A34000D0064E7002E95
:405B000000D065E700200024ABE7FF2E67D08024E40440422343E3E7FF2400233CE7002C61D1002B7ED0002A00D124E79B185A0100D460E73E4A0C0013401CE7002C1ED15D
:405B4000002B2FD1002A66D013000D0013E7012277E7002C1FD1002B5AD0C94300290BD0FF2E50D01B295FDC1F002024CF40611A8B40591E8B413B439B18340062E7002BDE
:405B80001CD1002A4AD013000D00FF24F3E6130034000D00EFE6FF2E35D08024E40449422343DFE7002A00D1E5E68027981AFF04074000D152E7D31A0D00DCE6FF24002A7E
:405BC00000D1D8E68020DB08C003034204D0D208024201D113000D00DB00FF24CBE61300FF240D00C7E6002B0DD0FF24002A00D1C1E68021DB08C9030B42EDD0D2080A42BB
:405C0000EAD11300E8E71300FF24B4E6012372E713003400AFE60027002022E780270020FF03F1E61300A6E60123A5E7FFFFFF7DFFFFFFFBF0B5564644465F464D46F0B446
:405C400044024600C70F83B08846650A360EBA463DD0FF2E22D00023EC00802599469B46ED0425437F3E43465C025800DB0F640A000E984636D0FF2830D080230021E40000
:405C8000DB041C437F38301A0190484642460843724E800030587A4013008746002D44D108239946063B9B46DDE70122FF2000241A406402C305640AD2071C431443200014
:405CC00003B03CBC90469946A246AB46F0BD002D20D104239946033B9B46C4E7002C17D1022102E0002C0AD10121321A01924A4643460A435A48920082587B409746200083
:405D000002F034FB431F76309C4040420021BAE70321B8E7280002F029FB431F9D4000237630464299469B469DE70C239946093B9B4698E780240022E403FF20B9E7002403
:405D4000C2468B465A465346022AAED0032A7DD0012A31D1012200201A400024A9E70122101A1B2856DD1A4000200024A1E78023DB031D424BD18023DB032B435C02640ACF
:405D80003A00FF2095E76D016001854230D2019A0024013A01921B220127290064006D00002901DBA84201D82D1A3C43013A002AF3D16A1E95412C4301987F300028CEDDEB
:405DC000620704D00F222240042A00D00434220103D5244A019814408030FE2800DD64E70122A401640AC0B21A4062E72C00A9E72D1A1A220124CFE76B02BCD5002480231F
:405E0000DB031C436402640A4246FF2051E71C42B3D1F4E721002022C140101A8440621E94410C43620704D00F222240042A00D00434620104D5012201201A40002438E79C
:405E40000122A401640A1A40002032E78023DB031C436402640A5246FF202AE7D0890000108A0000FFFFFFF7430270B542004C005D0AC30F4802120E460A240EC90FFF2AD8
:405E80000FD0FF2C11D00120A24200D070BDB542FCD18B420DD0002AF8D12800431E9841F4E70120002DF1D1EBE70120002EEDD1E9E70020EAE7C0464302F0B542005D0A0E
:405EC000C30F4802440A4800120E000EC90FFF2A1FD0FF2822D0002A09D16E426E4100280FD1002C0DD10020002D09D005E0002801D1002C01D08B4213D058420123184379
:405F0000F0BD002EF7D048424141012049420843F6E7002DDDD002204042F1E7002CDAD0F9E78242E9DC04DBA542E6D80020A542E6D25842434101205B421843E0E7C04603
:405F40004302F0B542004C005E0AC30F4802120E450A240EC90FFF2A17D0FF2C19D0002A0BD170427041002C17D0002807D048424141012049420843F0BD002C13D08B4281
:405F800014D0584201231843F6E70220002EF3D1E3E70220002DEFD1E1E7002DE5D10020002EE9D0EDE7002DE9D1EAE7A242E8DC04DBAE42E5D80020AE42DDD258424341CB
:405FC00001205B421843D7E7F0B557464E4645464300E0B446028846760A1F0EC40F002F47D0FF2F25D0002380259A469946F600ED042E437F3F434642465D02D20F5B004A
:406000006D0A1B0E904640D0FF2B39D080220020ED00D20415437F3BFB1842465746591C62408C4607430F2F5CD86F49BF00C9598F46002E45D108239A46063B9946DAE795
:40604000424602282DD0032800D1C3E0012800D0A2E0002500260240D4B27602ED05760A2E43E407264330001CBC90469946A246F0BD002E1AD104239A46033B9946BAE765
:406080002A00511E8A41901CC6E70120002DC3D0280002F06BF9431F76309D4043420020BAE70124FF2514400026D6E7300002F05DF9431F9E400023763047429A46994650
:4060C00099E70C239A46093B994694E780260024F603FF25C1E735004846B2E7350022004846AEE72904090C0800370C3604360C2C0C7943704367437443060C6418361920
:40610000B14203D980214902884647440004000C310409188D01681E8541890E2943350CED19AD010D43290104D5012369081D4063460D4319007F31002925DD680704D09E
:406140000F202840042800D00435280103D5274980330D401900FE29A3DC0124AD016E0A1440CDB279E78020C003064207D0054205D128434602760A4446FF256DE7064388
:406180007602760AFF2568E70124611A1B2905DD14400025002660E76346CBE72E002023CE40591A8D406B1E9D412E43730704D00F233340042B00D00436730104D5012438
:4061C00001251440002648E70124B601760A1440002542E780260124F6032E437602760A1440FF2539E7C046508A0000FFFFFFF7F8B54A024E0043024400240EC50F9B09BF
:40620000360EC90F9209FF2E00D183E001204140A01BA9425CD0002800DC95E0002E1CD1002A00D081E05A0704D00F221A40042A00D004335A013BD50134FF2C00D191E0E1
:4062400001209B015B0AE4B205405B02E4055B0AED0723432B431800F8BDFF2CE3D08021C9040A431B2800DD90E016002021C640081A8240511E8A4132439B1A5A0115D5CE
:406280009B019E09300002F071F80538864084426CDC041B330020200134E340041BA640721E964100243343BDE70D005A07BCD1DF0801231D40FF2C33D1002F00D190E069
:4062C0008022D20313003B435B025B0AFF24BCE700284FDD002E2ED0FF2CA4D08025ED042A431B2800DD97E016002025C640281A8240501E824132439B185A01D5D501345D
:40630000FF2C6DD001227B481A405B08034013430D0088E7002A00D07AE777E7031EC5D100257B025B0AE4B28FE701380028A4D0FF2C97D177E7002A00D174E7013800283D
:40634000DAD0FF2CCDD16EE7002821D1601CC0B2012858DD80279E1AFF0437402FD0D61A0D008FE701231D4000236EE7624B241A334058E7002851D1601CC6B2012E33DD91
:40638000FF282DD09B185B0804004CE7012274E7002C1AD0FF2E1FD08024E404404223431B2800DD96E01D002024C540201A8340581E83412B43D31A34000D005EE7002E06
:4063C00000D05FE700250024ABE7002B44D0C0430028F0D0FF2EE3D11300FF240D0022E70D00FF24002330E7002C5DD1002B7DD0002A00D117E79B185A0100D456E73E4A79
:40640000040013400FE7002C1ED1002B2FD1002A65D013000D0006E701226DE7002C1FD1002B59D0C04300280BD0FF2E4FD01B285EDC1D002024C540201A8340581E83410A
:406440002B439B18340058E7002B1CD1002A49D013000D00FF24E6E6130034000D00E2E6FF2E34D08024E40440422343DFE7002A00D1D8E68027981AFF04074000D14DE736
:40648000D31A0D00CFE6FF24002A00D1CBE68020DB08C003034204D0D208024201D113000D00DB00FF24BEE6002B10D0FF24002A00D1B8E68020DB08C003034203D0D2084E
:4064C000024200D11300DB000D00FF24ABE61300FF24A8E601236EE713003400A3E6002700251EE780270025FF03E9E613009AE60123A6E7FFFFFF7DFFFFFFFB4302590A7F
:406500004300C20F1B0E00207E2B0EDD9D2B0DDC802000040143952B0BDC9620C31AD9400B005842002A00D118007047034BD018FBE7963B99400B00F3E7C046FFFFFF7FE6
:4065400070B5002830D0C317C5185D40C40F280001F00CFF9E231B1A962B0DDC9622D21A95406A02520AD8B25202C005520AE40702432243100070BD992B19DC9922D21A71
:406580009540124A2A40690704D00F210D40042D00D00432510103D50C4B1A409F231B1A9201520AD8B2DFE7002400200022DBE705222E00121AB921D6402A00C91A8A40C7
:4065C000551EAA4135001543DBE7C046FFFFFFFBF8B556465F464D464446F0B40F00FD0FAA4609037C002E005F00450F490A7F0D2943C5001803BC46400A570F640DDB0F95
:406600003843D2009A4500D1AAE06646A61B002E00DCFFE06346002B39D10300134300D0D9E06B0709D00F232B40042B05D02B1DAB42AD416D4249191D000B0200D482E03D
:40664000CA4B01349C4200D1FEE00A005646C84BED081A405007640552020543120B640D002112030B0D1B056405120B1A436308C04CF60714401C4364006408344328006A
:4066800021003CBC90469946A246AB46F8BDB74B9C42C6D080231B041843382E00DDEBE01F2E00DD1EE120239B1B9C4603006746BB40984613004746F3403B436746BA4058
:4066C000571EBA4113430200F240EB1A9D42B6411D008A1A7642911B0B0231D54A02560A002E00D1B4E0300001F040FE0300083B1F2B00DDB5E020222900D21AD1409E40A7
:406700000A009D4032439C4200DDB1E01C1B631C1F2B00DDD5E0202114002800C91A8C40D8408D400443DA40681E854111002543002476E74146314300D134E231004546C9
:406740006B0700D06FE756464807ED08C9080543864B9C4235D00A036405120B640D7FE76346E31A9B46002B00DC8BE06746002F3CD07E4FBC4200D153E780273F0438434E
:406780005B46382B00DCF7E00243501E82410020D2B253194218AB4289411D00494289180B02CDD5714B01349C4200D13DE101206F4A6B080A4028401843D50705435108FE
:4067C0002FE72B000B4300D1CBE180231B030B431A03120B44E7013E002E6DD1AE1AB5429B41091A5B42C91A350075E70700174300D116E701235B429C46E3445B46002BDA
:4068000000D0E0E0AA18AA429B4109185B4259181500C5E7002E75D1661C7605760D012E00DCF3E0AE1AB0464545BF410E1A7F42F61B370200D48FE0551BAA42B641411A10
:4068400076428E1B9A464BE756460022002507E7280001F08BFD20300300083B1F2B00DC49E72A002838824000259C4200DC4DE73F49E41A1140D4E60243501E8241D3B25C
:40688000002222E7002B00D0F3E0631C9C465B055B0D012B00DC9FE0344B9C4500D1C3E0AA180918AA42804140424118CD075208154349086446B4E62C4B9C4200D0ECE6DE
:4068C000AFE611001F3CE1400C00202B00D17FE04021CB1A9A4015436A1E95410021254300242DE733000700203BDF403B00202E70D04027BE1BB0400243501E82411343DF
:406900000022E2E6002C4FD0184CA44500D1ABE08024240476422143382E00DDDFE01F2E00DD43E12027BC1BA1460C004F46BC40A0462C004746F4403C434F46BD406F1E2E
:40694000BD41F1402C43151BAA429241411A5242891A64469A46BFE641464546314300D0BEE6002600240025F2E6C046FF070000FFFF7FFFFFFF0F801F2B59DC2027FF1A94
:40698000BC46070063469F405B46B9461700DF40B8464F4643461F4363469A40531E9A415B463A43D840F4E60C002C435CD0F643002E55D1551BAA42A441411A6442091B79
:4069C0009A46644688E6964FBC4200D0D8E628E6002280E700208FE70B002B43002C00D0C2E0002B00D101E10300134300D118E6AB18AB42B6410918764271180A0200D4FB
:406A000009E1884A1D00114064460AE6002C5BD10E002E4300D08AE00100114300D1C2E0010015009A46FCE56446002100258FE620235B429C46DC4463460700DF405B462B
:406A4000BC46202B00D1ACE040235F46DB1B98400243501E8241634613431A00002098E66F4CA44500D057E70100150064469A46D7E5002C39D10C002C436ED0DB43002B23
:406A80001AD0674CA44568D0382B00DDA4E01F2B00DDAEE020240F00E41AA740B9462F00DF40B846A3464F46444627435C46A5406C1EA541D9403D43AD1895429B41091881
:406AC0005B42591864466BE60C002C4315D1010011437BD0010015009A46514CA1E50D43691E8D410021ECB22DE74D4CA44534D0802424045B422143C6E7040014434ED082
:406B0000ED084C072C438025C9082D03294208D0C6082E4205D1D208410711430C009A463100620FC900E50011433D4C79E50600164300D175E5AE1AB0464545BF410E1ABA
:406B40007F42F61B370200D4F4E5551BAA42B641411A7642891B9A4663E50100150064465FE5002200257BE5002B3BD00300134315D0ED084B072B438025C9082D03294246
:406B800007D0C4082C4204D141070B002100D2081343C9005A0F1143DD00214C41E5204C3FE5002054E700260025D1E534000F00203CE7403C00202E2BD04027BE1BB140ED
:406BC0000D43691E8D4100212C43BCE6802100260903134C0025BBE50D43691E8D410021EDB269E7010015000D4C1AE50100150017E51C000F00203CE7403C00202B0CD081
:406C00004027FB1A99400D43691E8D410021254352E70021D4E71D0092E50021F3E7C046FF070000FFFF7FFFF0B556464D4644465F46F0B41D000E034C00CB0F87B007006C
:406C400092468146360B640D98466AD06D4B9C4235D08022430F12041343F6001E43C3009946694B00279C460023644402932B0368001B0BED0F51469B46400D009500D1B7
:406C800078E0604B98426CD05B46DA004B0F802109040B4313439B465346D9005A4B9C46002360444246201A6A40924601901F430F2F00D9B0E05548BF00C0598746374359
:406CC00000D088E0002399460233082700260293CDE74346B34649460093029B009A9246022B00D0BFE1002153460122002689461A40444B002136030C0D2405360B264336
:406D0000434C1B0526401E437600D207760816434846310007B03CBC90469946A246AB46F0BD330003434FD0002E00D1BCE1300001F01CFB03000B3B1C2B00DDADE11D2268
:406D40000100D31A08393A008F408E40DA40B9461643304B00279C46002360444442029385E753465A4613432CD1002300219B46023397E70B4320D05B46002B00D19EE10B
:406D8000584601F0F3FA03000B3B1C2B00DD8FE102005946083A91408B461D21CB1A5146D9400B0059460B4351469B469140194B9C4660444042002374E7002300219B46D2
:406DC00001336FE703236DE70023994601330427002602934BE703230C27029347E70122D51A382D00DCB0E153461A4000210023002689467EE700238026994600223603AD
:406E0000004B77E7FF07000001FCFFFF908A0000FFFF0F80F30300005E4500D972E100D16DE1019B4D46013B01930023340002935B461E020B0E1E430B020393330C994636
:406E400033041B0C494620000093FEF7B7FA009B370043430600494620009846FEF734FB2C0C09040C43A04509D9E419731EA74200D95CE1A04500D859E1023EE419434618
:406E8000E41A49462000FEF799FA0300009A80465343494620009B46FEF716FB2A040904120C0A4393450DD94346D219013B974200D93AE1934500D837E102235B429C46C1
:406EC000D219E0445B46D21A4346360433439B460399180C0B0C1D00059309045B46090C0C001B041B0C4443049159436B4368431B190D0CEB189C4203D980246402A4462C
:406F000060441C0C09041B04090C20185D18824200D2DEE000D1D7E0161A029B9C465D1BAC459B415B42F61AB74200D106E149463000FEF743FA009B040043434946300094
:406F40009846FEF7C1FA2E0C09040E43B04509D9F619631EB74200D9F3E0B04500D8F0E0023CF6194346F31A494618000293FEF725FA009B06004343494602989846FEF7EC
:406F8000A3FA2D0409042D0C0D43A84509D9ED19731EAF4200D9D6E0A84500D8D3E0023EED192404210043463143049E059A3000ED1A0B040C0C1B0C58436643534354434C
:406FC0009A19030C9B189E4203D980225202944664441A0C00041B04000C14191B18A54250D34DD001231943964A019B94466344002B00DCF3E64A0709D00F220A40042ADC
:4070000005D00A1D8A42894149428B4411005A46D20108D55A468C4B1A4093468022D2009446019B6344894A934200DD5BE65A46C908500708435602514601225B058146B6
:40704000360B5B0D0A4055E680231B031E4211D05A461A420ED15E461E433603360B2A0089467B4B46E6032B00D1E1E0012BBBD11A40BBE61E433603360B4246744B39E6E7
:40708000002BB1D07D194A1EAF4252D91100A542A8D1039A9A42A5D1A6E703003E00283B9E400023994654E601F060F9203041E603005246283B9A400021934677E65046D9
:4070C00001F054F920305EE6029B0026AB4200D323E7039E0299B44661448846B045B6415B467642F619B218013B0291974213D290424FD800D18EE0161A9B460DE78945D2
:4071000000D28EE674084B46F60735005B081D434B46DB0702938BE69742EDD10399029CA142E5D93E1A9B46F7E69846CAE61E00A5E6AC423ED874D0110053E7012149428F
:4071400052E71C000EE71E002BE71F2D3CDC20230A0058465B1B9840EA4099400243481E81415E461143EE404B0709D00F230B40042B05D00B00191D99429B415B42F61813
:4071800033023CD55346012200211A40002601238946AFE502235B429C46039CE344A446029B63449846A045B6417642F6190293B218B1E603988A1E41008142B6417642A0
:4071C000F619AD19039161E71F225242D31A5A46DA401300202D29D040225846551BA8400143481E814107200B4318400026002809D00F2200261A401900042ABBD10B00C2
:4072000070077602360BDB0803439946012253461A4000236EE502998D42BBD89B4600267BE603989842C5D3110032E70020D7E780265B4636031E433603360B009A89464C
